:100000000C9434000C9449000C9449000C94490061
:100010000C9449000C9449000C9449000C9449003C
:100020000C9449000C9449000C9449000C9449002C
:100030000C9449000C9449000C9449000C9449001C
:100040000C9449000C9449000C9449000C9449000C
:100050000C9449000C9449000C9449000C944900FC
:100060000C9449000C94490011241FBECFEFD8E036
:10007000DEBFCDBF11E0A0E0B1E0E8E5F2E002C0F4
:1000800005900D92A630B107D9F70E941F010C947C
:100090002A010C940000289A5F9A5E9A5D9A08954E
:1000A000853721F483B1809581700895843631F4C9
:1000B00089B18095881F8827881F0895873639F46D
:1000C00089B186FB882780F991E0892708958237D6
:1000D00029F489B185FB882780F9F6CF813679F438
:1000E000189B0BC04F9B09C04E9B07C089B185FB75
:1000F000882780F991E08927D7CF81E0D5CF80E0AC
:100100000895529A5A9A1092C5001092C400549AB7
:100110008091C20080648093C2008091C200806898
:100120008093C2008091C20081608093C200809160
:10013000C20082608093C2008091C2008B7F809356
:10014000C2008091C10088608093C10083E390E089
:100150009093C5008093C4008091C00085FFFCCFC0
:100160005A988FEF8093C6008091C00086FFFCCF25
:100170005A9A8091C00080648093C00008952FEF48
:100180008FE392E0215080409040E1F700C00000F2
:100190000E9481002FEF8FE995E021508040904030
:1001A000E1F700C000002FEF8FE995E0215080407B
:1001B0009040E1F700C0000008959091C00095FFC5
:1001C000FCCF5A988093C6008091C00086FFFCCF78
:1001D0005A9A8091C00080648093C00008958EEF89
:1001E0000E94DD0081E50C94DD00CF93DF93D82FD2
:1001F000C62F8EEF0E94DD0085E40E94DD008C2F6B
:10020000DD2359F080E4D13039F084E1D23021F09F
:1002100080E0D33011F484E58C0FDF91CF910C9402
:10022000DD00CF93DF93EC018991811103C0DF9151
:10023000CF9108950E94DD00F7CF0C9411010E9428
:100240004B000E94BF0080E091E00E941D0190E001
:0802500080E00895F894FFCF4F
:0602580048656C6C6F00AC
:00000001FF
