:100000000C9434000C9449000C9449000C94490061
:100010000C9449000C9449000C9449000C9449003C
:100020000C9449000C9449000C9449000C9449002C
:100030000C9449000C9449000C9449000C9449001C
:100040000C9449000C9449000C9449000C9449000C
:100050000C9449000C9449000C9449000C944900FC
:100060000C9449000C94490011241FBECFEFD8E036
:10007000DEBFCDBF11E0A0E0B1E0E6E7F2E002C0F4
:1000800005900D92AC30B107D9F70E944B000C944B
:1000900039010C9400000E9456000E94CF0080E0BD
:1000A00091E00E94360180E090E00895289A5F9ADE
:1000B0005E9A5D9A0895853711F483B116C084362F
:1000C00031F489B18095881F8827881F0895873665
:1000D00031F489B1829586958695837006C0823702
:1000E00039F489B1829586958770809581700895DD
:1000F000813611F080E00895189B10C04F9B0EC010
:100100004E9B0CC089B190E025E0969587952A9585
:10011000E1F78095909581709070089581E090E06E
:100120000895529A5A9A1092C5001092C400549A97
:100130008091C20080648093C2008091C200806878
:100140008093C2008091C20081608093C200809140
:10015000C20082608093C2008091C2008B7F809336
:10016000C2008091C10088608093C10083E390E069
:100170009093C5008093C4008091C00085FFFCCFA0
:100180005A988FEF8093C6008091C00086FFFCCF05
:100190005A9A8091C00080648093C000089588EED0
:1001A00093E028EB30E0F9013197F1F70197D9F7A7
:1001B0000E94910084EC99E028EB30E0F90131973E
:1001C000F1F70197D9F784EC99E028EB30E0F901D9
:1001D0003197F1F70197D9F70895982F8091C000D2
:1001E00085FFFCCF5A989093C6008091C00086FF8F
:1001F000FCCF5A9A8091C00080648093C00008951B
:100200000F931F93182F062F8EEF0E94ED0085E4A9
:100210000E94ED00112311F4802F10C0113019F449
:10022000802F805C0BC0123019F4802F8C5E06C0CA
:10023000133019F4802F8C5A01C080E00E94ED0029
:100240001F910F9108958EEF0E94ED0081E50E94AD
:10025000ED000895CF93DF93EC0102C00E94ED0002
:1002600089918823D9F7DF91CF9108950E942A01BF
:060270000895F894FFCF91
:0C027600492068617465204C434473000B
:00000001FF
