:100000000C9434000C9449000C9449000C94490061
:100010000C9449000C9449000C9449000C9449003C
:100020000C9449000C9449000C9449000C9449002C
:100030000C9449000C9449000C9449000C9449001C
:100040000C9449000C9449000C9449000C9449000C
:100050000C9449000C9449000C9449000C944900FC
:100060000C9449000C94490011241FBECFEFD8E036
:10007000DEBFCDBF11E0A0E0B1E0E2EEF2E002C0F1
:1000800005900D92A035B107D9F70E944B000C9452
:100090006F010C9400000E9482000E94200180E009
:1000A00061E00E94CC0085E70E948700882329F048
:1000B0000E94BD0080E091E022C084E60E9487009B
:1000C000882329F00E94BD008AE091E018C087E6ED
:1000D0000E948700882329F00E94BD0086E191E0FC
:1000E0000EC082E70E948700882329F00E94BD008D
:1000F0008BE291E004C00E94BD008EE391E00E947B
:100100006C01CDCF289A5F9A5E9A5D9A08958537E3
:1001100011F483B116C0843631F489B18095881FFB
:100120008827881F0895873631F489B1829586958E
:100130008695837006C0823739F489B18295869599
:100140008770809581700895813611F080E0089560
:10015000189B10C04F9B0EC04E9B0CC089B190E005
:1001600025E0969587952A95E1F780959095817081
:100170009070089581E090E008958091C00085FF1F
:10018000FCCF8EEF8093C6008091C00085FFFCCF2E
:1001900081E58093C6000895982F8091C00085FF67
:1001A000FCCF8EEF8093C6008091C00085FFFCCF0E
:1001B00085E48093C600992329F48091C00085FFCF
:1001C000FCCF17C0913031F48091C00085FFFCCF87
:1001D000605C0FC0923031F48091C00085FFFCCF8D
:1001E0006C5E07C0933041F48091C00085FFFCCF66
:1001F0006C5A6093C60008958091C00085FFFCCFC3
:100200001092C600089524EC30E0F90111821082AA
:10021000A2ECB0E08C9180648C93549AE1ECF0E015
:100220008081886080838C9186608C931092C50059
:100230008FE2F90180838FE290E0918380830895BB
:100240000E94030184EC99E028EB30E0F90131973A
:10025000F1F70197D9F784EC99E028EB30E0F90148
:100260003197F1F70197D9F78091C00085FFFCCF56
:100270008EEF8093C6008091C00085FFFCCF81E5A2
:100280008093C6008091C00085FFFCCF8EEF8093E5
:10029000C6008091C00085FFFCCF83E58093C60037
:1002A0008091C00085FFFCCF87E08093C600089551
:1002B000982F8091C00085FFFCCF9093C6000895D1
:1002C000FC0106C08091C00085FFFCCF9093C60062
:1002D00091919923B9F708950E9460010895F894C7
:0202E000FFCF4E
:1002E200557020427574746F6E00446F776E2042B1
:1002F2007574746F6E00477265656E204275747412
:100302006F6E20507265737365640052656420627B
:100312007574746F6E2070726573736564004E6FCE
:1003220020427574746F6E20507265737365640039
:00000001FF
