:100000000C9434000C9449000C9449000C94490061
:100010000C9449000C9449000C9449000C9449003C
:100020000C9449000C9449000C9449000C9449002C
:100030000C9449000C9449000C9449000C9449001C
:100040000C9449000C9449000C9449000C9449000C
:100050000C9449000C9449000C9449000C944900FC
:100060000C9449000C94490011241FBECFEFD8E036
:10007000DEBFCDBF11E0A0E0B1E0E8EBF2E002C0EE
:1000800005900D92A035B107D9F70E944B000C9452
:100090005A010C9400000E9482000E940B0180E033
:1000A00061E00E94B70085E70E948700882329F05D
:1000B0000E94A80080E091E022C084E60E948700B0
:1000C000882329F00E94A8008AE091E018C087E602
:1000D0000E948700882329F00E94A80086E191E011
:1000E0000EC082E70E948700882329F00E94A800A2
:1000F0008BE291E004C00E94A8008EE391E00E9490
:100100005701CDCF289A5F9A5E9A5D9A08958537F8
:1001100011F483B10FC0843631F489B18095881F02
:100120008827881F0895873641F489B1829586957E
:1001300086958370809581700895823711F080E0F4
:10014000089589B18295869587708095817008950C
:100150008091C00085FFFCCF8EEF8093C600809118
:10016000C00085FFFCCF81E58093C6000895982FDD
:100170008091C00085FFFCCF8EEF8093C6008091F8
:10018000C00085FFFCCF85E48093C600992329F445
:100190008091C00085FFFCCF17C0913031F4809171
:1001A000C00085FFFCCF605C0FC0923031F48091BD
:1001B000C00085FFFCCF6C5E07C0933041F4809196
:1001C000C00085FFFCCF6C5A6093C60008958091F3
:1001D000C00085FFFCCF1092C600089524EC30E0EB
:1001E000F90111821082A2ECB0E08C9180648C93B2
:1001F000549AE1ECF0E08081886080838C91866085
:100200008C931092C50083E3F901808383E390E02F
:100210009183808308950E94EE0084EC99E025EF9D
:1002200030E0F9013197F1F70197D9F784EC99E0C3
:1002300025EF30E0F9013197F1F70197D9F7809177
:10024000C00085FFFCCF8EEF8093C6008091C00078
:1002500085FFFCCF81E58093C6008091C00085FFBB
:10026000FCCF8EEF8093C6008091C00085FFFCCF4D
:1002700083E58093C6008091C00085FFFCCF87E0B6
:100280008093C6000895982F8091C00085FFFCCF11
:100290009093C6000895FC0106C08091C00085FFC0
:1002A000FCCF9093C60091919923B9F708950E94CD
:0802B0004B010895F894FFCF03
:1002B800557020427574746F6E00446F776E2042DB
:1002C8007574746F6E00477265656E20427574743C
:1002D8006F6E2050726573736564005265642062A6
:1002E8007574746F6E2070726573736564004E6FF9
:1002F80020427574746F6E20507265737365640064
:00000001FF
