:100000000C9434000C9449000C9449000C94490061
:100010000C9449000C9449000C9449000C9449003C
:100020000C9449000C9449000C9449000C9449002C
:100030000C9449000C9449000C9449000C9449001C
:100040000C9449000C9449000C9449000C9449000C
:100050000C9449000C9449000C9449000C944900FC
:100060000C9449000C94490011241FBECFEFD8E036
:10007000DEBFCDBF11E0A0E0B1E0E4E3F2E002C0FA
:1000800005900D92A630B107D9F70E9407010C9494
:1000900018010C940000289A5F9A5E9A5D9A089560
:1000A000853721F483B1809581700895843631F4C9
:1000B00089B18095881F8827881F0895873639F46D
:1000C00089B186FB882780F991E0892708958237D6
:1000D00029F489B185FB882780F9F6CF813679F438
:1000E000189B0BC04F9B09C04E9B07C089B185FB75
:1000F000882780F991E08927D7CF81E0D5CF80E0AC
:100100000895529A5A9AA4ECB0E011961C921E924D
:10011000549AE2ECF0E08081806C8083808183607F
:10012000808380818B7F8083E1ECF0E08081886038
:10013000808383E390E011969C938E9308952FEF34
:100140008FE392E0215080409040E1F700C0000032
:100150000E9481002FEF8FE995E021508040904070
:10016000E1F700C000002FEF8FE995E021508040BB
:100170009040E1F700C0000008959091C00095FF05
:10018000FCCF8093C6008091C00086FFFCCF809199
:10019000C00080648093C00008955A988EEF0E943A
:1001A000BD0081E50E94BD0086E69EE00197F1F763
:1001B00000005A9A0895CF93DF93D82FC62F8EEF61
:1001C0000E94BD0085E40E94BD008C2FDD2359F004
:1001D00080E4D13039F084E1D23021F080E0D330B6
:1001E00011F484E58C0FDF91CF910C94BD00CF9377
:1001F000DF93EC018991811103C0DF91CF910895C4
:100200005A980E94BD005A9AF5CF0C94F7000E94AC
:100210004B000E949F000E94CD0061E080E00E94A0
:10022000DB0080E091E00E94050190E080E008950D
:04023000F894FFCF70
:0602340048656C6C6F00D0
:00000001FF
