:100000000C9434000C9449000C9449000C94490061
:100010000C9449000C9449000C9449000C9449003C
:100020000C9449000C9449000C9449000C9449002C
:100030000C9449000C9449000C9449000C9449001C
:100040000C9449000C9449000C9449000C9449000C
:100050000C9449000C9449000C9449000C944900FC
:100060000C9449000C94490011241FBECFEFD8E036
:10007000DEBFCDBF11E0A0E0B1E0E6E5F1E002C0F7
:1000800005900D92AC34B107D9F70E949B000C94F7
:10009000A9000C9400008FE290E09093C50080933B
:1000A000C400E1ECF0E080818860808386E080938A
:1000B000C20008959091C00095FFFCCF8093C600C8
:1000C00008952FEF8FE797E0215080409040E1F7AF
:1000D00000C000002FEF8FE797E021508040904054
:1000E000E1F700C000008EEF0E945A0081E50C94F9
:1000F0005A00CF93DF93C82FD62F8EEF0E945A005D
:1001000085E40E945A0081E08D0F0E945A0081E030
:100110008C0FDF91CF910C945A00CF93DF93EC01B9
:100120008991811103C0DF91CF9108950E945A00F7
:10013000F7CF0C948D000E944B000E9461008EEF5F
:100140000E945A0081E50E945A0081E40E945A00F0
:06015000FFCFF894FFCF81
:100156002D2D20417072696C2031312C20323031C6
:1001660031202D2D003E3E2061743332382D362E3F
:1001760063203C3C3C003E3E2055534320454534DD
:1001860035394C203C3C003132333435363738393A
:0C01960030313233343536373839300020
:00000001FF
