:100000000C9434000C9451000C9451000C94510049
:100010000C9451000C9451000C9451000C9451001C
:100020000C9451000C9451000C9451000C9453000A
:100030000C9451000C9451000C9451000C945100FC
:100040000C9451000C9451000C9451000C945100EC
:100050000C9451000C9451000C9451000C945100DC
:100060000C9451000C94510011241FBECFEFD8E026
:10007000DEBFCDBF12E0A0E0B1E0EAE7F7E102C0E9
:1000800005900D92A638B107D9F722E0A6E8B2E0B4
:1000900001C01D92AB38B207E1F70E9411030C9426
:1000A000BB0B0C9400001F920F920FB60F921124FD
:1000B000CF92DF92EF92FF920F931F932F933F9374
:1000C0004F935F936F937F938F939F93AF93BF9360
:1000D000EF93FF93CF93DF93CDB7DEB7A897DEBF43
:1000E000CDBF8091870290918802A0918902B09142
:1000F0008A020196A11DB11D809387029093880208
:10010000A0938902B0938A0280918602893009F017
:10011000B0C08091000140918702509188026091A7
:10012000890270918A0290E0B0E0A0E08417950700
:10013000A607B70709F08BC00E94C2010E94800287
:100140007C0161E080E00E94EC01FF92EF9282E08E
:1001500091E09F938F938E010B5E1F4F1F930F9320
:100160000E94E308C8010E941E020E94C002182FCC
:10017000092F61E081E00E94EC010F931F938BE057
:1001800091E09F938F938E010F5F1F4F1F930F93EB
:100190000E94E308C8010E941E020E94E802D82EB5
:1001A000C92E61E082E00E94EC01CF92DF9283E1F0
:1001B00091E09F938F931F930F930E94E308C801D0
:1001C0000E941E020E942A020E9432020E94220203
:1001D0002FEF8FE995E0215080409040E1F700C07B
:1001E00000002FEF8FE995E0215080409040E1F72B
:1001F00000C000002FEF8FE995E021508040904033
:10020000E1F700C000002FEF8FE995E0215080401A
:100210009040E1F700C000000E942C020E943402CE
:100220000E9424020E94C20110928702109288024A
:100230001092890210928A020FB6F894DEBF0FBEA8
:10024000CDBF99ECE916F10410F00E942E0281E670
:100250000E943B02882369F01092010188E080939C
:1002600086021092870210928802109289021092E0
:100270008A02A8960FB6F894DEBF0FBECDBFDF91FD
:10028000CF91FF91EF91BF91AF919F918F917F910E
:100290006F915F914F913F912F911F910F91FF901F
:1002A000EF90DF90CF900F900FBE0F901F9018959A
:1002B0000E9420020E9494010E9426020E9436029F
:1002C0000E946C020E94AC02E1E8F0E080818C6048
:1002D000808381E19AE79093890080938800EFE61C
:1002E000F0E080818260808378940895529A5A9ACF
:1002F000A4ECB0E011961C921E92549AE2ECF0E04D
:100300008081806C808380818360808380818B7F0B
:100310008083E1ECF0E080818860808383E390E07B
:1003200011969C938E9308952FEF8FE392E02150C6
:1003300080409040E1F700C000000E9476012FEF5E
:100340008FE995E0215080409040E1F700C0000027
:100350002FEF8FE995E0215080409040E1F700C0F9
:10036000000008959091C00095FFFCCF8093C600D7
:100370008091C00086FFFCCF8091C0008064809394
:10038000C00008955A988EEF0E94B20181E50E9444
:10039000B20186E69EE00197F1F700005A9A0895AF
:1003A0005A988EEF0E94B20181E40E94B20186E663
:1003B0009EE00197F1F700005A9A08955A988EEF3F
:1003C0000E94B20182E40E94B20186E69EE001979B
:1003D000F1F700005A9A0895CF93DF93D82FC62FD4
:1003E0005A988EEF0E94B20185E40E94B20186E61F
:1003F0009EE00197F1F700008C2FDD2359F080E497
:10040000D13039F084E1D23021F080E0D33011F4E2
:1004100084E58C0F0E94B2015A9ADF91CF91089522
:10042000CF93DF93EC018991811103C0DF91CF91CC
:1004300008955A980E94B2015A9AF5CF0C9410026E
:10044000219A0895299A089529980895389A3D9AED
:10045000279A0895409A089540980895459A0895D6
:10046000459808952F9A08952F980895289A5F9A8D
:100470005E9A5D9A0895853721F483B180958170E5
:100480000895843631F489B18095881F8827881FA4
:100490000895873639F489B186FB882780F991E081
:1004A00089270895823729F489B185FB882780F947
:1004B000F6CF813679F4189B0BC04F9B09C04E9B39
:1004C00007C089B185FB882780F991E08927D7CFBC
:1004D00081E0D5CF80E00895EAE7F0E08081846094
:1004E0008083808182608083ECE7F0E080818F7779
:1004F000808380818F7B808380818F7D808308953E
:1005000080917C00807F80937C0080917C00816062
:1005100080937C0080917A00806880937A0080913B
:100520007A00806480937A0080917A0086FFFCCF05
:100530006091780070917900072E000C880B990B60
:100540000E94570820E030E040EF50E40E94AD07E1
:100550000E941F08CB010895EAE7F0E080818460E3
:100560008083808182608083ECE7F0E080818F77F8
:10057000808380818F7B808380818F7D80830895BD
:1005800080917C00807F80937C0080917C008260E1
:1005900080937C0080917A00806880937A008091BB
:1005A0007A00806480937A0080917A0086FFFCCF85
:1005B00020917800309179004EE0429FC001439F26
:1005C000900D11246CED75E00E947F07CB0108951A
:1005D00080917C00807F80937C0080917C00816092
:1005E00080937C0080917C00826080937C0080916D
:1005F0007A00806880937A0080917A00806480938A
:100600007A0080917A0086FFFCCF809178009091EB
:10061000790097FD4F9625E0959587952A95E1F706
:100620000895CF93DF93CDB7DEB7A8970FB6F894B0
:10063000DEBF0FBECDBF0E94580188E080938602C6
:1006400010E000E0612C712CE12CF12C5524539426
:100650008AE0282E5E0125E1A20EB11CCE01019692
:100660006C0193E1892E91E0992EE0918602EC30A5
:1006700008F0A7C2F0E0E15CFC4F0C9493074B0339
:100680007403A403FD036704D00429055B058305F7
:10069000FD050206590601111AC00E94C2016AE056
:1006A00080E00E94EC0185E291E00E941E0262E07F
:1006B00081E00E94EC0187E291E00E941E026AE064
:1006C00083E00E94EC0187E391E00E941E0287E62E
:1006D0000E943B02882309F4EFC31111F5C3209255
:1006E000860200E0182F6DC2011122C00E94C201D3
:1006F0006AE080E00E94EC0185E291E00E941E0227
:1007000064E081E00E94EC0189E391E00E941E0216
:1007100062E082E00E94EC0186E491E00E941E0209
:100720006AE083E00E94EC0187E391E00E941E02F0
:1007300087E60E943B02882309F4BEC31111C4C39B
:100740009BE090938602CDCFFF2061F101111AC08A
:100750000E94C2016AE080E00E94EC0185E291E023
:100760000E941E0262E081E00E94EC0186E591E0B9
:100770000E941E026AE083E00E94EC0187E391E0A0
:100780000E941E0287E60E943B02482E0F2D8823FE
:1007900009F417C2012F11112EC00E94240200E09B
:1007A000F12C60C001111AC00E94C2016AE080E011
:1007B0000E94EC0185E291E00E941E0262E081E06D
:1007C0000E94EC0188E691E00E941E026AE083E04C
:1007D0000E94EC0187E391E00E941E0287E60E94DE
:1007E0003B02482E882309F466C311116DC30E9491
:1007F000220200E0142DF12EE4C1EE20A9F1011136
:1008000022C00E94C2016AE080E00E94EC0185E201
:1008100091E00E941E0266E081E00E94EC0189E7FF
:1008200091E00E941E0262E082E00E94EC0182E8F8
:1008300091E00E941E026AE083E00E94EC0187E3DF
:1008400091E00E941E0287E60E943B02482E0E2D78
:10085000882309F4B6C1012F111137C00E942C0260
:1008600000E0E12C142DADC1011122C00E94C20193
:100870006AE080E00E94EC0185E291E00E941E02A5
:1008800066E081E00E94EC0182E991E00E941E0294
:1008900062E082E00E94EC0182E891E00E941E0288
:1008A0006AE083E00E94EC0187E391E00E941E026F
:1008B00087E60E943B02482E882309F4FFC21111EB
:1008C00003C30E942A0200E0142DE12E7AC1772092
:1008D000A1F1011122C00E94C2016AE080E00E94E1
:1008E000EC0185E291E00E941E0266E081E00E9438
:1008F000EC0189E791E00E941E0265E082E00E941F
:10090000EC018AE991E00E941E026AE083E00E9405
:10091000EC0187E391E00E941E0287E60E943B0201
:10092000482E072D882309F44CC1012F111136C020
:100930000E94300200E0712C95CF011122C00E946C
:10094000C2016AE080E00E94EC0185E291E00E9431
:100950001E0266E081E00E94EC0182E991E00E94C3
:100960001E0265E082E00E94EC018AE991E00E94AB
:100970001E026AE083E00E94EC0187E391E00E949E
:100980001E0287E60E943B02482E882309F498C283
:1009900011119AC20E942E0200E0142D712E11C175
:1009A000662061F101111AC00E94C2016AE080E074
:1009B0000E94EC0185E291E00E941E0263E081E06A
:1009C0000E94EC0185EA91E00E941E026AE083E049
:1009D0000E94EC0187E391E00E941E0287E60E94DC
:1009E0003B02482E062D882309F4EBC0012F11117C
:1009F0002EC00E94340200E0612C34CF01111AC0D5
:100A00000E94C2016AE080E00E94EC0185E291E070
:100A10000E941E0263E081E00E94EC0185EB91E000
:100A20000E941E026AE083E00E94EC0187E391E0ED
:100A30000E941E0287E60E943B02482E882309F48A
:100A400041C2111141C20E94320200E0142D612EF8
:100A5000B8C001111AC00E94C2016AE080E00E9481
:100A6000EC0185E291E00E941E0260E081E00E94BC
:100A7000EC0184EC91E00E941E026AE083E00E9497
:100A8000EC0187E391E00E941E0287E60E943B0290
:100A9000482E882309F410C2111116C20E942402A4
:100AA0000E942C020E9430020E94340200E0612C5D
:100AB000712CE12C75CE01111AC00E94C2016AE0AE
:100AC00080E00E94EC0185E291E00E941E0265E058
:100AD00081E00E94EC0188ED91E00E941E026AE034
:100AE00083E00E94EC0187E391E00E941E0287E60A
:100AF0000E943B02882309F4DFC11111E5C129E0FE
:100B000020938602EECD0E94C20166E081E00E9441
:100B1000EC0183EE91E00E941E0264E082E00E94FC
:100B2000EC018BEE91E00E941E023FEF8FE995E011
:100B3000315080409040E1F700C000002FEF3FE9C6
:100B400085E0215030408040E1F700C000009FEF79
:100B50002FE935E0915020403040E1F700C000001F
:100B60008FEF9FE925E0815090402040E1F700C0E1
:100B700000003FEF8FE995E0315080409040E1F771
:100B800000C000002FEF3FE985E021503040804059
:100B9000E1F700C000009FEF2FE935E091502040C1
:100BA0003040E1F700C000008FEF9FE925E0815061
:100BB00090402040E1F700C000000E94C201109266
:100BC000860280918602883088F411110FC085E773
:100BD0000E943B02882309F47DC190918602911105
:100BE00075C197E09093860200E0182F81E60E947D
:100BF0003B0281113ACD10E038CD0E94C2015092E3
:100C00000101DFCF0E94C2010E948002482E392ECE
:100C100061E080E00E94EC013F924F9282E091E01F
:100C20009F938F93BF92AF920E94E308C5010E94E9
:100C30001E020E94C002482E392E61E081E00E940F
:100C4000EC013F924F928BE091E09F938F93DF9264
:100C5000CF920E94E308C6010E941E020E94E80291
:100C6000482E392E61E082E00E94EC013F924F92C3
:100C70009F928F92DF92CF920E94E308C6010E945A
:100C80001E023FEF8FE995E0315080409040E1F740
:100C900000C0000082E70E943B020FB6F894DEBF5E
:100CA0000FBECDBF882309F48CCF1092860200E0DE
:100CB00088CF011122C00E94C20160E080E00E9442
:100CC000EC0189EF91E00E941E0260E081E00E9449
:100CD000EC018DE092E00E941E0260E082E00E9442
:100CE000EC0181E292E00E941E0260E083E00E943B
:100CF000EC0184E392E00E941E0282E70E943B0224
:100D0000882329F0111103C050928602EACC85E7AE
:100D10000E943B02482E882309F45BC0111159C080
:100D20000E94C20160E081E00E94EC0188E492E050
:100D30000E941E0233E0309300018FEF9FE925E00F
:100D4000815090402040E1F700C000003FEF8FE964
:100D500095E0315080409040E1F700C000002FEF57
:100D60003FE985E0215030408040E1F700C00000BD
:100D70009FEF2FE935E0915020403040E1F700C06F
:100D800000008FEF9FE925E0815090402040E1F77F
:100D900000C000003FEF8FE995E031508040904067
:100DA000E1F700C000002FEF3FE985E0215030401F
:100DB0008040E1F700C000009FEF2FE935E091503F
:100DC00020403040E1F700C000005092860200E071
:100DD00049CD84E60E943B02482E882309F456C080
:100DE000111154C00E94C20160E081E00E94EC0138
:100DF0008DE592E00E941E0285E0809300019FEF46
:100E00002FE935E0915020403040E1F700C000006C
:100E10008FEF9FE925E0815090402040E1F700C02E
:100E200000003FEF8FE995E0315080409040E1F7BE
:100E300000C000002FEF3FE985E0215030408040A6
:100E4000E1F700C000009FEF2FE935E0915020400E
:100E50003040E1F700C000008FEF9FE925E08150AE
:100E600090402040E1F700C000003FEF8FE995E09F
:100E7000315080409040E1F700C000002FEF3FE983
:100E800085E0215030408040E1F79DCF87E60E9409
:100E90003B02482E882381F0111116C00E94C20126
:100EA00060E081E00E94EC0182E792E00E941E0275
:100EB00020920001A4CFF12C01E083CEE12CFCCFE5
:100EC000712CFACF612CF8CF012F7BCE9091860246
:100ED000915088CE84E60E943B02182F882309F4A3
:100EE00085CE80918602873021F41092860200E040
:100EF0007DCE809186028F5F80938602F8CF97FB2C
:100F0000072E16F4009407D077FD09D00E949907A8
:100F100007FC05D03EF4909581959F4F08957095FC
:100F200061957F4F0895EE0FFF1F0590F491E02D1E
:100F30000994AA1BBB1B51E107C0AA1FBB1FA61720
:100F4000B70710F0A61BB70B881F991F5A95A9F772
:100F500080959095BC01CD0108950E94C1070C9425
:100F6000A9080E94A20858F00E949B0840F029F4AA
:100F70005F3F29F00C94920851110C94DD080C94F9
:100F800098080E94BA0868F39923B1F3552391F3A6
:100F9000951B550BBB27AA2762177307840738F0E8
:100FA0009F5F5F4F220F331F441FAA1FA9F335D045
:100FB0000E2E3AF0E0E832D091505040E695001CF9
:100FC000CAF72BD0FE2F29D0660F771F881FBB1FB3
:100FD000261737074807AB07B0E809F0BB0B802D91
:100FE000BF01FF2793585F4F3AF09E3F510578F0BD
:100FF0000C9492080C94DD085F3FE4F3983ED4F320
:10100000869577956795B795F7959F5FC9F7880F90
:10101000911D9695879597F90895E1E0660F771FE2
:10102000881FBB1F621773078407BA0720F0621B73
:10103000730B840BBA0BEE1F88F7E09508950E949E
:1010400026086894B1110C94DD0808950E94C20826
:1010500088F09F5798F0B92F9927B751B0F0E1F079
:10106000660F771F881F991F1AF0BA95C9F714C029
:10107000B13091F00E94DC08B1E008950C94DC08D6
:10108000672F782F8827B85F39F0B93FCCF3869562
:1010900077956795B395D9F73EF4909580957095BF
:1010A00061957F4F8F4F9F4F0895E89409C097FB3C
:1010B0003EF490958095709561957F4F8F4F9F4F2F
:1010C0009923A9F0F92F96E9BB279395F695879573
:1010D00077956795B795F111F8CFFAF4BB0F11F436
:1010E00060FF1BC06F5F7F4F8F4F9F4F16C08823DD
:1010F00011F096E911C0772321F09EE8872F762F13
:1011000005C0662371F096E8862F70E060E02AF053
:101110009A95660F771F881FDAF7880F969587953F
:1011200097F9089597F99F6780E870E060E0089567
:101130009FEF80EC089500240A94161617061806EF
:101140000906089500240A941216130614060506CB
:101150000895092E0394000C11F4882352F0BB0F5C
:1011600040F4BF2B11F460FF04C06F5F7F4F8F4FBF
:101170009F4F089557FD9058440F551F59F05F3FFA
:1011800071F04795880F97FB991F61F09F3F79F0A9
:1011900087950895121613061406551FF2CF46952B
:1011A000F1DF08C0161617061806991FF1CF8695AD
:1011B0007105610508940895E894BB276627772791
:1011C000CB0197F90895AEE0B0E0E9EEF8E00C94B9
:1011D000920B0D891E8986E08C831A8309838FEF19
:1011E0009FE79E838D83AE01475E5F4F6F89788D49
:1011F000CE0101960E9406092F813885020F131F28
:10120000F80110822E96E4E00C94AE0BABE0B0E057
:10121000ECE0F9E00C94840B7C013B018A01FC01B9
:1012200017821682838181FFC8C1CE0101965C01BD
:10123000F7019381F30193FD859193FF81913F0124
:10124000882309F453C1853239F493FD859193FFC6
:1012500081913F01853229F4B70190E00E94F60A9E
:10126000E7CF912C212C312CFFE1F31538F08B3294
:1012700011F190F4803209F1833229F137FC3CC03E
:1012800020ED280F2A3050F536FE20C08AE0989EC7
:10129000200D1124922E06C08D3291F0803371F70B
:1012A000689430F8F30193FD859193FF81913F019C
:1012B0008111DACF21C0689431F8689432F8F2CF06
:1012C000689433F8EFCF689434F8ECCFEAE02E9EC0
:1012D000200D1124222E689435F8E4CF8E3229F4A3
:1012E00036FC04C1689436F8DDCF8C3619F4689466
:1012F00037F8D8CF8836B1F2982F9F7D9554933028
:10130000E0F08336A1F18337C1F1833509F063C082
:101310002801F2E04F0E511CF801C080D180692DE8
:1013200070E036FC02C06FEF7FEFC6010E94E00A5A
:101330004C01689437F882010AC00C5F1F4FFFE32D
:10134000F98388248394912C6501E89437F833FE5F
:101350002DC0522C8114910471F5552009F468CFE9
:10136000B70180E290E00E94F60A5A94F6CFF801A5
:10137000808189830E5F1F4FE4CF2801F2E04F0E7A
:10138000511CF801C080D180692D70E036FC02C08C
:101390006FEF7FEFC6010E94EB0A4C018201D5CFAF
:1013A000B70180E290E00E94F60A2A9428141904FA
:1013B00009F0B0F7CECFF60137FC859137FE819169
:1013C0006F01B70190E00E94F60A51105A94F1E0C3
:1013D0008F1A9108BFCF843619F0893609F077C08B
:1013E000F80137FE6BC060817181828193810C5F4F
:1013F0001F4FF32DFF763F2E97FF09C090958095E4
:10140000709561957F4F8F4F9F4F689437F82AE012
:1014100030E0A5010E94260BC82ECA188C2C432C44
:1014200036FE0CC0E89440F8C91440F434FE05C000
:1014300032FC03C0F32DFE7E4F2E892C44FE95C056
:10144000FE01EC0DF11D8081803309F087C0242D51
:10145000297E422E842D8870582E43FC95C040FE74
:101460008FC09C2C821418F42C0C922C981844FEDB
:1014700091C0B70180E390E00E94F60A42FE09C0E5
:1014800088E790E041FE02C088E590E0B7010E9445
:10149000F60AC91408F48AC0CA94D12C9FEFC91A5D
:1014A000D90ACA0CDB1CF60182916F01B70190E0EA
:1014B0000E94F60AAC14BD04B1F74FCF6081718170
:1014C000072E000C880B990B0E5F1F4F92CFD32C69
:1014D000E894D4F82AE030E0853739F1232D297FCC
:1014E000D22E8F3601F148F48835A9F0F7018681B4
:1014F00097812B96E2E10C94A00B803749F0883756
:10150000A9F7D4FE02C06894D2F820E130E00DC003
:101510006894D4F8F6CF34FE03C0822F8660D82EAC
:1015200020E132E002C028E030E0F801D7FE0FC031
:1015300060817181828193810C5F1F4FA5010E94A0
:10154000260BC82ECA183D2CE89437F867CF608167
:10155000718190E080E00E5F1F4FF0CF42FC02C02F
:10156000839478CF8394839475CF842D867809F4FF
:1015700071CFF6CFB70180E290E00E94F60A839423
:101580008214C0F3512C73CF522C5818821408F4D3
:101590006ECFF8CF842D867809F47BCF8BE241FEA5
:1015A00080E247FC8DE2B70190E071CFB70180E3A4
:1015B00090E00E94F60A9A946CCF8FEF9FEF99CF3C
:1015C000FC010590615070400110D8F7809590950E
:1015D0008E0F9F1F0895FC01615070400190011013
:1015E000D8F7809590958E0F9F1F08950F931F93A6
:1015F000CF93DF93182F092FEB018B8181FD09C059
:101600001FEF0FEF812F902FDF91CF911F910F913F
:10161000089582FF14C02E813F818C819D812817FF
:1016200039073CF4E881F981CF01019699838883D9
:1016300010838E819F8101969F838E83E3CFE885FF
:10164000F985812F0995892BA1F3DACFFA01AA2711
:10165000283051F1203181F1E8946F936E7F6E5FF5
:101660007F4F8F4F9F4FAF4FB1E03ED0B4E03CD0A3
:10167000670F781F891F9A1FA11D680F791F8A1F86
:10168000911DA11D6A0F711D811D911DA11D20D0ED
:1016900009F468943F912AE0269F11243019305DA7
:1016A0003193DEF6CF010895462F4770405D419398
:1016B000B3E00FD0C9F7F6CF462F4F70405D4A33E5
:1016C00018F0495D31FD4052419302D0A9F7EACFAD
:1016D000B4E0A6959795879577956795BA95C9F7DC
:1016E00000976105710508959B01AC010A2E0694CF
:1016F0005795479537952795BA95C9F7620F731F88
:10170000841F951FA01D08952F923F924F925F92C4
:101710006F927F928F929F92AF92BF92CF92DF9201
:10172000EF92FF920F931F93CF93DF93CDB7DEB766
:10173000CA1BDB0B0FB6F894DEBF0FBECDBF0994FA
:101740002A88398848885F846E847D848C849B8451
:10175000AA84B984C884DF80EE80FD800C811B815F
:10176000AA81B981CE0FD11D0FB6F894DEBF0FBE8E
:0A177000CDBFED010895F894FFCFFE
:10177A000501544453203D202564005048203D2053
:10178A0025640054656D70203D2025642063656CD6
:10179A0063697573005E0053656E736F72205265DC
:1017AA006164696E677300760050726F6772616D6B
:1017BA002050756D7000262053656E736F72205429
:1017CA00696D696E67005475726E204F46462074C3
:1017DA0068652050756D70005475726E204F4E20EA
:1017EA007468652050756D70005475726E204F468E
:1017FA0046004368656D6963616C2046696C74656F
:10180A0072005475726E204F4E0042696F2046690D
:10181A006C746572005475726E204F464620486596
:10182A0061746572005475726E204F4E204865616E
:10183A00746572005475726E204F4646206576654F
:10184A0072797468696E6700536C656570204D6FB4
:10185A0064650057656C636F6D6500546F20417154
:10186A007561706F6E6963730050726573732027B8
:10187A00552720746F2031306D696E730050726580
:10188A0073732027442720746F20686F75726C79F0
:10189A000050726573732027472720746F20646194
:1018AA00696C790050726573732027522720746F10
:1018BA002072657475726E0074696D696E67207343
:1018CA00657420746F2031306D696E730074696DB0
:1018DA00696E672073657420746F20686F75726C07
:1018EA00790074696D696E672073657420746F205E
:0618FA006461696C7900D5
:00000001FF
