:100000000C9434000C9451000C9451000C94510049
:100010000C9451000C9451000C9451000C9451001C
:100020000C9451000C9451000C9451000C9453000A
:100030000C9451000C9451000C9451000C945100FC
:100040000C9451000C9451000C9451000C945100EC
:100050000C9451000C9451000C9451000C945100DC
:100060000C9451000C94510011241FBECFEFD8E026
:10007000DEBFCDBF12E0A0E0B1E0E0EAF6E102C0F1
:1000800005900D92A638B107D9F722E0A6E8B2E0B4
:1000900001C01D92AB38B207E1F70E94A4020C9494
:1000A0004E0B0C9400001F920F920FB60F9211246A
:1000B0002F933F934F935F936F937F938F939F9370
:1000C000AF93BF93EF93FF93809187029091880243
:1000D000A0918902B0918A020196A11DB11D809361
:1000E000870290938802A0938902B0938A0280913C
:1000F0008602893009F05EC080910001409187023C
:10010000509188026091890270918A0290E0B0E07B
:10011000A0E084179507A607B707D1F50E94BD0197
:100120000E94C5010E94B5012FEF8FE995E0215093
:1001300080409040E1F700C000002FEF8FE995E08C
:10014000215080409040E1F700C000002FEF8FE980
:1001500095E0215080409040E1F700C000002FEF73
:100160008FE995E0215080409040E1F700C0000009
:100170000E94BF010E94C7010E94B7010E94550161
:1001800010928702109288021092890210928A02BD
:1001900081E60E94CE01882369F01092010188E077
:1001A0008093860210928702109288021092890230
:1001B00010928A02FF91EF91BF91AF919F918F9121
:1001C0007F916F915F914F913F912F910F900FBE53
:1001D0000F901F9018950E94B3010E9427010E9462
:1001E000B9010E94C9010E94FF010E943F02E1E89B
:1001F000F0E080818C60808381E19AE790938900B0
:1002000080938800EFE6F0E08081826080837894BC
:100210000895529A5A9AA4ECB0E011961C921E923C
:10022000549AE2ECF0E08081806C8083808183606E
:10023000808380818B7F8083E1ECF0E08081886027
:10024000808383E390E011969C938E9308952FEF23
:100250008FE392E0215080409040E1F700C0000021
:100260000E9409012FEF8FE995E0215080409040D6
:10027000E1F700C000002FEF8FE995E021508040AA
:100280009040E1F700C0000008959091C00095FFF4
:10029000FCCF8093C6008091C00086FFFCCF809188
:1002A000C00080648093C00008955A988EEF0E9429
:1002B000450181E50E94450186E69EE00197F1F740
:1002C00000005A9A08955A988EEF0E94450181E4E1
:1002D0000E94450186E69EE00197F1F700005A9AD8
:1002E00008955A988EEF0E94450182E40E944501CC
:1002F00086E69EE00197F1F700005A9A0895CF93A1
:10030000DF93D82FC62F5A988EEF0E94450185E4BF
:100310000E94450186E69EE00197F1F700008C2FD0
:10032000DD2359F080E4D13039F084E1D23021F07E
:1003300080E0D33011F484E58C0F0E9445015A9A75
:10034000DF91CF910895CF93DF93EC0189918111D3
:1003500003C0DF91CF9108955A980E9445015A9A9F
:10036000F5CF0C94A301219A0895299A089529980C
:100370000895389A3D9A279A0895409A089540988A
:100380000895459A0895459808952F9A08952F98AD
:100390000895289A5F9A5E9A5D9A0895853721F4A8
:1003A00083B1809581700895843631F489B1809548
:1003B000881F8827881F0895873639F489B186FBFE
:1003C000882780F991E089270895823729F489B137
:1003D00085FB882780F9F6CF813679F4189B0BC00E
:1003E0004F9B09C04E9B07C089B185FB882780F9C8
:1003F00091E08927D7CF81E0D5CF80E00895EAE763
:10040000F0E0808184608083808182608083ECE77B
:10041000F0E080818F77808380818F7B80838081F3
:100420008F7D8083089580917C00807F80937C0005
:1004300080917C00816080937C0080917A0080684C
:1004400080937A0080917A00806480937A00809112
:100450007A0086FFFCCF6091780070917900072EBA
:10046000000C880B990B0E94EA0720E030E040EF77
:1004700050E40E9440070E94B207CB010895EAE7CA
:10048000F0E0808184608083808182608083ECE7FB
:10049000F0E080818F77808380818F7B8083808173
:1004A0008F7D8083089580917C00807F80937C0085
:1004B00080917C00826080937C0080917A008068CB
:1004C00080937A0080917A00806480937A00809192
:1004D0007A0086FFFCCF20917800309179004EE0C1
:1004E000429FC001439F900D11246CED75E00E9466
:1004F0001207CB01089580917C00807F80937C005F
:1005000080917C00816080937C0080917C0082607F
:1005100080937C0080917A00806880937A0080913B
:100520007A00806480937A0080917A0086FFFCCF05
:10053000809178009091790097FD4F9625E09595F0
:1005400087952A95E1F70895CF93DF93CDB7DEB76E
:10055000A8970FB6F894DEBF0FBECDBF0E94EB0088
:1005600088E08093860210E000E0612C712CE12C81
:10057000F12C552453948AE0282E5E0125E1A20E29
:10058000B11CCE0101966C0197EE892E91E0992E57
:10059000E0918602EC3008F0A7C2F0E0EE52FD4F89
:1005A0000C942607DE02070337039003FA03630463
:1005B000BC04EE04160590059505EC0501111AC062
:1005C0000E9455016AE080E00E947F0182E091E094
:1005D0000E94B10162E081E00E947F0184E091E02D
:1005E0000E94B1016AE083E00E947F0184E191E012
:1005F0000E94B10187E60E94CE01882309F4EFC36F
:100600001111F5C32092860200E0182F6DC201116E
:1006100022C00E9455016AE080E00E947F0182E0D2
:1006200091E00E94B10164E081E00E947F0186E1D7
:1006300091E00E94B10162E082E00E947F0183E2CA
:1006400091E00E94B1016AE083E00E947F0184E1B1
:1006500091E00E94B10187E60E94CE01882309F44F
:10066000BEC31111C4C39BE090938602CDCFFF207F
:1006700061F101111AC00E9455016AE080E00E94F8
:100680007F0182E091E00E94B10162E081E00E947E
:100690007F0183E391E00E94B1016AE083E00E9460
:1006A0007F0184E191E00E94B10187E60E94CE01C2
:1006B000482E0F2D882309F417C2012F11112EC0C7
:1006C0000E94B70100E0F12C60C001111AC00E9425
:1006D00055016AE080E00E947F0182E091E00E9483
:1006E000B10162E081E00E947F0185E491E00E9417
:1006F000B1016AE083E00E947F0184E191E00E9401
:10070000B10187E60E94CE01482E882309F466C312
:1007100011116DC30E94B50100E0142DF12EE4C14A
:10072000EE20A9F1011122C00E9455016AE080E08B
:100730000E947F0182E091E00E94B10166E081E0C9
:100740000E947F0186E591E00E94B10162E082E0B3
:100750000E947F018FE591E00E94B1016AE083E091
:100760000E947F0184E191E00E94B10187E60E942E
:10077000CE01482E0E2D882309F4B6C1012F111188
:1007800037C00E94BF0100E0E12C142DADC1011162
:1007900022C00E9455016AE080E00E947F0182E051
:1007A00091E00E94B10166E081E00E947F018FE646
:1007B00091E00E94B10162E082E00E947F018FE53A
:1007C00091E00E94B1016AE083E00E947F0184E130
:1007D00091E00E94B10187E60E94CE01482E882355
:1007E00009F4FFC2111103C30E94BD0100E0142DE2
:1007F000E12E7AC17720A1F1011122C00E9455019A
:100800006AE080E00E947F0182E091E00E94B101F5
:1008100066E081E00E947F0186E591E00E94B101DF
:1008200065E082E00E947F0187E791E00E94B101CC
:100830006AE083E00E947F0184E191E00E94B101BF
:1008400087E60E94CE01482E072D882309F44CC16B
:10085000012F111136C00E94C30100E0712C95CF09
:10086000011122C00E9455016AE080E00E947F01D0
:1008700082E091E00E94B10166E081E00E947F0188
:100880008FE691E00E94B10165E082E00E947F0165
:1008900087E791E00E94B1016AE083E00E947F0156
:1008A00084E191E00E94B10187E60E94CE01482ECA
:1008B000882309F498C211119AC20E94C10100E074
:1008C000142D712E11C1662061F101111AC00E9410
:1008D00055016AE080E00E947F0182E091E00E9481
:1008E000B10163E081E00E947F0182E891E00E9413
:1008F000B1016AE083E00E947F0184E191E00E94FF
:10090000B10187E60E94CE01482E062D882309F406
:10091000EBC0012F11112EC00E94C70100E0612C15
:1009200034CF01111AC00E9455016AE080E00E9494
:100930007F0182E091E00E94B10163E081E00E94CA
:100940007F0182E991E00E94B1016AE083E00E94A8
:100950007F0184E191E00E94B10187E60E94CE010F
:10096000482E882309F441C2111141C20E94C501D9
:1009700000E0142D612EB8C001111AC00E9455016B
:100980006AE080E00E947F0182E091E00E94B10174
:1009900060E081E00E947F0181EA91E00E94B10164
:1009A0006AE083E00E947F0184E191E00E94B1014E
:1009B00087E60E94CE01482E882309F410C2111147
:1009C00016C20E94B7010E94BF010E94C3010E948B
:1009D000C70100E0612C712CE12C75CE01111AC009
:1009E0000E9455016AE080E00E947F0182E091E070
:1009F0000E94B10165E081E00E947F0185EB91E0FA
:100A00000E94B1016AE083E00E947F0184E191E0ED
:100A10000E94B10187E60E94CE01882309F4DFC15C
:100A20001111E5C129E020938602EECD0E94550107
:100A300066E081E00E947F0180EC91E00E94B101BC
:100A400064E082E00E947F0188EC91E00E94B101A5
:100A50003FEF8FE995E0315080409040E1F700C0D2
:100A600000002FEF3FE985E0215030408040E1F762
:100A700000C000009FEF2FE935E09150204030404A
:100A8000E1F700C000008FEF9FE925E08150904022
:100A90002040E1F700C000003FEF8FE995E03150C2
:100AA00080409040E1F700C000002FEF3FE985E073
:100AB000215030408040E1F700C000009FEF2FE957
:100AC00035E0915020403040E1F700C000008FEF4A
:100AD0009FE925E0815090402040E1F700C00000F0
:100AE0000E9455011092860280918602883088F417
:100AF00011110FC085E70E94CE01882309F47DC142
:100B000090918602911175C197E09093860200E062
:100B1000182F81E60E94CE0181113ACD10E038CD28
:100B20000E94550150920101DFCF0E9455010E94A1
:100B30001302482E392E61E080E00E947F013F922F
:100B40004F9286ED91E09F938F93BF92AF920E9458
:100B50007608C5010E94B1010E945302482E392E29
:100B600061E081E00E947F013F924F928FED91E022
:100B70009F938F93DF92CF920E947608C6010E94C6
:100B8000B1010E947B02482E392E61E082E00E9472
:100B90007F013F924F929F928F92DF92CF920E945D
:100BA0007608C6010E94B1013FEF8FE995E0315010
:100BB00080409040E1F700C0000082E70E94CE0133
:100BC0000FB6F894DEBF0FBECDBF882309F48CCFDB
:100BD0001092860200E088CF011122C00E945501C8
:100BE00060E080E00E947F0189EF91E00E94B10106
:100BF00060E081E00E947F018DE092E00E94B101FF
:100C000060E082E00E947F0181E292E00E94B101F7
:100C100060E083E00E947F0184E392E00E94B101E2
:100C200082E70E94CE01882329F0111103C050925F
:100C30008602EACC85E70E94CE01482E882309F47B
:100C40005BC0111159C00E94550160E081E00E9413
:100C50007F0188E492E00E94B10133E0309300010B
:100C60008FEF9FE925E0815090402040E1F700C0E0
:100C700000003FEF8FE995E0315080409040E1F770
:100C800000C000002FEF3FE985E021503040804058
:100C9000E1F700C000009FEF2FE935E091502040C0
:100CA0003040E1F700C000008FEF9FE925E0815060
:100CB00090402040E1F700C000003FEF8FE995E051
:100CC000315080409040E1F700C000002FEF3FE935
:100CD00085E0215030408040E1F700C000009FEFE8
:100CE0002FE935E0915020403040E1F700C000008E
:100CF0005092860200E049CD84E60E94CE01482E43
:100D0000882309F456C0111154C00E94550160E0B7
:100D100081E00E947F018DE592E00E94B10185E0B3
:100D2000809300019FEF2FE935E091502040304043
:100D3000E1F700C000008FEF9FE925E0815090406F
:100D40002040E1F700C000003FEF8FE995E031500F
:100D500080409040E1F700C000002FEF3FE985E0C0
:100D6000215030408040E1F700C000009FEF2FE9A4
:100D700035E0915020403040E1F700C000008FEF97
:100D80009FE925E0815090402040E1F700C000003D
:100D90003FEF8FE995E0315080409040E1F700C08F
:100DA00000002FEF3FE985E0215030408040E1F71F
:100DB0009DCF87E60E94CE01482E882381F0111135
:100DC00016C00E94550160E081E00E947F0182E729
:100DD00092E00E94B10120920001A4CFF12C01E029
:100DE00083CEE12CFCCF712CFACF612CF8CF012FF0
:100DF0007BCE90918602915088CE84E60E94CE01EF
:100E0000182F882309F485CE80918602873021F43B
:100E10001092860200E07DCE809186028F5F8093E3
:100E20008602F8CF97FB072E16F4009407D077FDC3
:100E300009D00E942C0707FC05D03EF490958195BF
:100E40009F4F0895709561957F4F0895EE0FFF1F96
:100E50000590F491E02D0994AA1BBB1B51E107C03A
:100E6000AA1FBB1FA617B70710F0A61BB70B881F3A
:100E7000991F5A95A9F780959095BC01CD010895C9
:100E80000E9454070C943C080E94350858F00E94B8
:100E90002E0840F029F45F3F29F00C9425085111E9
:100EA0000C9470080C942B080E944D0868F3992349
:100EB000B1F3552391F3951B550BBB27AA27621756
:100EC0007307840738F09F5F5F4F220F331F441F63
:100ED000AA1FA9F335D00E2E3AF0E0E832D0915097
:100EE0005040E695001CCAF72BD0FE2F29D0660F84
:100EF000771F881FBB1F261737074807AB07B0E8C7
:100F000009F0BB0B802DBF01FF2793585F4F3AF0CC
:100F10009E3F510578F00C9425080C9470085F3FB3
:100F2000E4F3983ED4F3869577956795B795F79552
:100F30009F5FC9F7880F911D9695879597F908953A
:100F4000E1E0660F771F881FBB1F621773078407D6
:100F5000BA0720F0621B730B840BBA0BEE1F88F7E5
:100F6000E09508950E94B9076894B1110C94700837
:100F700008950E94550888F09F5798F0B92F992737
:100F8000B751B0F0E1F0660F771F881F991F1AF074
:100F9000BA95C9F714C0B13091F00E946F08B1E062
:100FA00008950C946F08672F782F8827B85F39F061
:100FB000B93FCCF3869577956795B395D9F73EF40D
:100FC00090958095709561957F4F8F4F9F4F0895B5
:100FD000E89409C097FB3EF49095809570956195D3
:100FE0007F4F8F4F9F4F9923A9F0F92F96E9BB2789
:100FF0009395F695879577956795B795F111F8CF05
:10100000FAF4BB0F11F460FF1BC06F5F7F4F8F4F6F
:101010009F4F16C0882311F096E911C0772321F065
:101020009EE8872F762F05C0662371F096E8862FFD
:1010300070E060E02AF09A95660F771F881FDAF754
:10104000880F9695879597F9089597F99F6780E897
:1010500070E060E008959FEF80EC089500240A940A
:101060001616170618060906089500240A94121683
:101070001306140605060895092E0394000C11F4B6
:10108000882352F0BB0F40F4BF2B11F460FF04C063
:101090006F5F7F4F8F4F9F4F089557FD9058440FBC
:1010A000551F59F05F3F71F04795880F97FB991FC7
:1010B00061F09F3F79F08795089512161306140684
:1010C000551FF2CF4695F1DF08C016161706180611
:1010D000991FF1CF86957105610508940895E894EC
:1010E000BB2766277727CB0197F90895AEE0B0E0DC
:1010F000ECE7F8E00C94250B0D891E8986E08C83C3
:101100001A8309838FEF9FE79E838D83AE01475E2D
:101110005F4F6F89788DCE0101960E9499082F81CB
:101120003885020F131FF80110822E96E4E00C940C
:10113000410BABE0B0E0EFE9F8E00C94170B7C0159
:101140003B018A01FC0117821682838181FFC8C19D
:10115000CE0101965C01F7019381F30193FD859126
:1011600093FF81913F01882309F453C1853239F4FB
:1011700093FD859193FF81913F01853229F4B70159
:1011800090E00E94890AE7CF912C212C312CFFE1BD
:10119000F31538F08B3211F190F4803209F183327B
:1011A00029F137FC3CC020ED280F2A3050F536FEDF
:1011B00020C08AE0989E200D1124922E06C08D3208
:1011C00091F0803371F7689430F8F30193FD8591C5
:1011D00093FF81913F018111DACF21C0689431F8EA
:1011E000689432F8F2CF689433F8EFCF689434F80B
:1011F000ECCFEAE02E9E200D1124222E689435F8C3
:10120000E4CF8E3229F436FC04C1689436F8DDCF81
:101210008C3619F4689437F8D8CF8836B1F2982F05
:101220009F7D95549330E0F08336A1F18337C1F16F
:10123000833509F063C02801F2E04F0E511CF8011C
:10124000C080D180692D70E036FC02C06FEF7FEF67
:10125000C6010E94730A4C01689437F882010AC0E3
:101260000C5F1F4FFFE3F98388248394912C650161
:10127000E89437F833FE2DC0522C8114910471F597
:10128000552009F468CFB70180E290E00E94890AF6
:101290005A94F6CFF801808189830E5F1F4FE4CF07
:1012A0002801F2E04F0E511CF801C080D180692D59
:1012B00070E036FC02C06FEF7FEFC6010E947E0A2D
:1012C0004C018201D5CFB70180E290E00E94890AEB
:1012D0002A942814190409F0B0F7CECFF60137FC90
:1012E000859137FE81916F01B70190E00E94890AD4
:1012F00051105A94F1E08F1A9108BFCF843619F03B
:10130000893609F077C0F80137FE6BC060817181C2
:10131000828193810C5F1F4FF32DFF763F2E97FF45
:1013200009C090958095709561957F4F8F4F9F4F25
:10133000689437F82AE030E0A5010E94B90AC82E67
:10134000CA188C2C432C36FE0CC0E89440F8C91403
:1013500040F434FE05C032FC03C0F32DFE7E4F2E58
:10136000892C44FE95C0FE01EC0DF11D8081803377
:1013700009F087C0242D297E422E842D8870582E96
:1013800043FC95C040FE8FC09C2C821418F42C0C9A
:10139000922C981844FE91C0B70180E390E00E941F
:1013A000890A42FE09C088E790E041FE02C088E554
:1013B00090E0B7010E94890AC91408F48AC0CA944F
:1013C000D12C9FEFC91AD90ACA0CDB1CF6018291F5
:1013D0006F01B70190E00E94890AAC14BD04B1F717
:1013E0004FCF60817181072E000C880B990B0E5F27
:1013F0001F4F92CFD32CE894D4F82AE030E0853701
:1014000039F1232D297FD22E8F3601F148F488350A
:10141000A9F0F701868197812B96E2E10C94330BBA
:10142000803749F08837A9F7D4FE02C06894D2F813
:1014300020E130E00DC06894D4F8F6CF34FE03C04C
:10144000822F8660D82E20E132E002C028E030E012
:10145000F801D7FE0FC060817181828193810C5F9A
:101460001F4FA5010E94B90AC82ECA183D2CE89446
:1014700037F867CF6081718190E080E00E5F1F4F89
:10148000F0CF42FC02C0839478CF8394839475CFCD
:10149000842D867809F471CFF6CFB70180E290E011
:1014A0000E94890A83948214C0F3512C73CF522C6A
:1014B0005818821408F46ECFF8CF842D867809F47A
:1014C0007BCF8BE241FE80E247FC8DE2B70190E0EA
:1014D00071CFB70180E390E00E94890A9A946CCFA3
:1014E0008FEF9FEF99CFFC01059061507040011084
:1014F000D8F7809590958E0F9F1F0895FC0161503D
:10150000704001900110D8F7809590958E0F9F1F25
:1015100008950F931F93CF93DF93182F092FEB019B
:101520008B8181FD09C01FEF0FEF812F902FDF917D
:10153000CF911F910F91089582FF14C02E813F819A
:101540008C819D81281739073CF4E881F981CF010E
:1015500001969983888310838E819F8101969F8352
:101560008E83E3CFE885F985812F0995892BA1F337
:10157000DACFFA01AA27283051F1203181F1E8941D
:101580006F936E7F6E5F7F4F8F4F9F4FAF4FB1E076
:101590003ED0B4E03CD0670F781F891F9A1FA11D71
:1015A000680F791F8A1F911DA11D6A0F711D811D72
:1015B000911DA11D20D009F468943F912AE0269F37
:1015C00011243019305D3193DEF6CF010895462F96
:1015D0004770405D4193B3E00FD0C9F7F6CF462F77
:1015E0004F70405D4A3318F0495D31FD40524193E0
:1015F00002D0A9F7EACFB4E0A6959795879577959D
:101600006795BA95C9F700976105710508959B0123
:10161000AC010A2E06945795479537952795BA95AC
:10162000C9F7620F731F841F951FA01D08952F9285
:101630003F924F925F926F927F928F929F92AF9262
:10164000BF92CF92DF92EF92FF920F931F93CF93AF
:10165000DF93CDB7DEB7CA1BDB0B0FB6F894DEBF46
:101660000FBECDBF09942A88398848885F846E846C
:101670007D848C849B84AA84B984C884DF80EE80B6
:10168000FD800C811B81AA81B981CE0FD11D0FB6BF
:10169000F894DEBF0FBECDBFED010895F894FFCFE3
:1016A00005015E0053656E736F7220526561646957
:1016B0006E677300760050726F6772616D205075AF
:1016C0006D7000262053656E736F722054696D69CA
:1016D0006E67005475726E204F4646207468652010
:1016E00050756D70005475726E204F4E2074686591
:1016F0002050756D70005475726E204F4646004341
:1017000068656D6963616C2046696C74657200542C
:1017100075726E204F4E0042696F2046696C746589
:1017200072005475726E204F46462048656174659C
:1017300072005475726E204F4E2048656174657258
:10174000005475726E204F46462065766572797436
:1017500068696E6700536C656570204D6F64650045
:1017600057656C636F6D6500546F204171756170D2
:101770006F6E69637300544453203D20256400500C
:1017800048203D2025640054656D70203D2025646F
:101790002063656C636975730050726573732027ED
:1017A000552720746F2031306D696E73005072655B
:1017B00073732027442720746F20686F75726C79CB
:1017C0000050726573732027472720746F2064616F
:1017D000696C790050726573732027522720746FEB
:1017E0002072657475726E0074696D696E6720731E
:1017F000657420746F2031306D696E730074696D8B
:10180000696E672073657420746F20686F75726CE1
:10181000790074696D696E672073657420746F2038
:061820006461696C7900AF
:00000001FF
