:100000000C9434000C9451000C9451000C94510049
:100010000C9451000C9451000C9451000C9451001C
:100020000C9451000C9451000C9451000C9453000A
:100030000C9451000C9451000C9451000C945100FC
:100040000C9451000C9451000C9451000C945100EC
:100050000C9451000C9451000C9451000C945100DC
:100060000C9451000C94510011241FBECFEFD8E026
:10007000DEBFCDBF11E0A0E0B1E0ECE1F7E002C0EF
:1000800005900D92A23DB107D9F721E0A2EDB1E0B4
:1000900001C01D92A73DB207E1F70E94B1010C9487
:1000A0008C030C9400001F920F920FB60F92112434
:1000B0002F933F934F935F936F937F938F939F9370
:1000C000AF93BF93EF93FF938091D3019091D401AD
:1000D000A091D501B091D6010196A11DB11D8093CB
:1000E000D3019093D401A093D501B093D601809110
:1000F000D201893009F040C08091D3019091D401A0
:10010000A091D501B091D6010597A105B105A1F542
:100110000E9473010E9477012FEF8FE995E0215033
:1001200080409040E1F700C000002FEF8FE995E09C
:10013000215080409040E1F700C000002FEF8FE990
:1001400095E0215080409040E1F700C000002FEF83
:100150008FE995E0215080409040E1F700C0000019
:100160000E9475010E9479011092D3011092D4016E
:100170001092D5011092D601FF91EF91BF91AF91EE
:100180009F918F917F916F915F914F913F912F91AF
:100190000F900FBE0F901F9018950E946A010E9449
:1001A0000A010E9470010E947B01E1E8F0E0808179
:1001B0008C60808381E19AE7909389008093880026
:1001C000EFE6F0E08081826080830895529A5A9A27
:1001D000A4ECB0E011961C921E92549AE2ECF0E06E
:1001E0008081806480838081806880838081816059
:1001F000808380818260808380818B7F8083E1EC3B
:10020000F0E080818860808383E390E011969C9386
:100210008E9308952FEF8FE392E02150804090401D
:10022000E1F700C000000E94E6002FEF8FE995E0A3
:10023000215080409040E1F700C000002FEF8FE98F
:1002400095E0215080409040E1F700C00000089503
:100250005A988093C6008091C00085FFFCCF8091A2
:10026000C00086FFFCCF5A9A8091C00080648093C2
:10027000C00008958EEF0E94280181E50C942801AA
:10028000CF93DF93D82FC62F8EEF0E94280185E4ED
:100290000E9428018C2FDD2359F080E4D13039F001
:1002A00084E1D23021F080E0D33011F484E58C0F6A
:1002B000DF91CF910C942801CF93DF93EC018991CA
:1002C000811103C0DF91CF9108950E942801F7CFDB
:1002D0000C945C01219A0895299A0895299808950B
:1002E000389A279A0895409A0895409808952F9A29
:1002F00008952F980895289A5F9A5E9A5D9A0895B6
:10030000853721F483B1809581700895843631F466
:1003100089B18095881F8827881F0895873639F40A
:1003200089B186FB882780F991E089270895823773
:1003300029F489B185FB882780F9F6CF813679F4D5
:10034000189B0BC04F9B09C04E9B07C089B185FB12
:10035000882780F991E08927D7CF81E0D5CF80E049
:1003600008950E94CD0088E08093D201D0E0C0E0E3
:1003700010E089E0F82E97E0E92EE091D201EA3012
:1003800008F08FC0F0E0E953FE4F0C948603D101D2
:10039000F60109021C029902AC02BF02D20202035A
:1003A0005F03C1117EC00E943A0166E080E00E94B6
:1003B000400180E091E00E94680160E081E00E94DD
:1003C000400182E091E00E94680164E082E00E94C6
:1003D000400182E191E00E94680166E083E00E94B2
:1003E00040018AED0E942801C1E05BC0C11159C0E3
:1003F0000E943A0166E080E00E94400180E091E0C6
:100400000E94680160E081E00E94400180E291E08A
:10041000DACFC11146C00E943A0166E080E00E9436
:10042000400180E091E00E94680160E081E00E946C
:10043000400184E391E0C7CF112309F448C0C11102
:1004400021C00E943A0166E080E00E94400180E005
:1004500091E00E94680160E081E00E9440018AE42E
:1004600091E00E94680164E082E00E94400182E124
:1004700091E00E94680166E083E00E9440018AEDFD
:100480000E94280187E60E948001082FC12F88233F
:1004900041F0CD2FD1114BC00E946E01C0E010E0A1
:1004A000D02F8091D201883008F067CFD1112AC1B6
:1004B00085E70E948001882309F40FC19091D20141
:1004C000911105C1E092D201C0E0D82F56CFC111E1
:1004D00021C00E943A0166E080E00E94400180E075
:1004E00091E00E94680160E081E00E9440018CE59B
:1004F00091E00E94680164E082E00E94400182E194
:1005000091E00E94680166E083E00E9440018AED6C
:100510000E94280187E60E948001082F882309F4A1
:10052000D2C0D111D2C00E946C01C0E0D02F1D2FCB
:10053000B8CFC111B6CF0E943A0166E080E00E94B8
:10054000400180E091E00E94680160E081E00E944B
:1005500040018DE691E037CFC111A3CF0E943A014F
:1005600066E080E00E94400180E091E00E94680126
:1005700060E081E00E94400185E891E024CFC11154
:1005800090CF0E943A0166E080E00E94400180E046
:1005900091E00E94680160E081E00E9440018CE9E6
:1005A00091E011CFC11121C00E943A0166E080E0C4
:1005B0000E94400180E091E00E94680160E081E0DB
:1005C0000E94400180EB91E00E94680164E082E0BB
:1005D0000E94400182E191E00E94680166E083E0B0
:1005E0000E9440018AED0E94280187E60E94800156
:1005F000882309F4F9CED11168C0F092D201C0E08D
:10060000D82F4FCF66E081E00E9440018BEB91E054
:100610000E94680164E082E00E94400183EC91E066
:100620000E9468012FEF8FE995E0215080409040B3
:10063000E1F700C000002FEF8FE995E021508040E6
:100640009040E1F700C000002FEF8FE995E02150C6
:1006500080409040E1F700C000002FEF8FE995E067
:10066000215080409040E1F700C000002FEF8FE95B
:1006700095E0215080409040E1F700C000002FEF4E
:100680008FE995E0215080409040E1F700C00000E4
:100690002FEF8FE995E0215080409040E1F700C0B6
:1006A00000002FEF8FE995E0215080409040E1F766
:1006B00000C000000E943A011092D201F2CE0E94C6
:1006C0003A017894EECE10E08FCECD2FEACE909105
:1006D000D20191509093D201F7CE84E60E9480011E
:1006E000D82F882309F449CE8091D201873021F494
:1006F0001092D201C0E041CE8091D2018F5F8093F1
:10070000D201F8CF81E60E948001DFCEEE0FFF1FFD
:0C0710000590F491E02D0994F894FFCFBF
:10071C005E0053656E736F722052656164696E671B
:10072C00730028507265737320477265656E2900DB
:10073C0050726F6772616D2050756D702054696DC9
:10074C00696E670050726F6772616D2053656E73CE
:10075C006F722054696D696E67005475726E204F0C
:10076C004646207468652050756D70005475726E25
:10077C00204F4E207468652050756D700054757252
:10078C006E204F4E20746865204368656D20466965
:10079C006C746572005475726E204F4E20746865CF
:1007AC002042696F2046696C746572005475726ED4
:1007BC00204F46462065766572797468696E6700CD
:1007CC00536C656570204D6F64650057656C636F85
:1007DC006D6500546F2041717561706F6E69637344
:0207EC0000000B
:00000001FF
