:100000000C9434000C9449000C9449000C94490061
:100010000C9449000C9449000C9449000C9449003C
:100020000C9449000C9449000C9449000C9449002C
:100030000C9449000C9449000C9449000C9449001C
:100040000C9449000C9449000C9449000C9449000C
:100050000C9449000C9449000C9449000C944900FC
:100060000C9449000C94490011241FBECFEFD8E036
:10007000DEBFCDBF11E0A0E0B1E0EAECF5E002C0E8
:1000800005900D92A03EB107D9F70E9454000C9440
:10009000E3020C9400000E94A7020E9458020E94F2
:1000A000AD020E94B3020895EF92FF920F931F9347
:1000B000CF93DF930E944B0000E0FF2418E0EE2472
:1000C000C5EFD0E003C0FF24F3941CC0143009F442
:1000D000C9C0153050F4113049F1113098F0123088
:1000E000C1F1133009F04BC158C0163009F4E2C019
:1000F000163008F4CBC0173009F4EFC0183009F0FF
:100100003EC10FC1002309F048C00E94F50180E004
:1001100066E00E94040280E091E00E94A40281E077
:1001200060E00E94040282E091E025C00023A9F56E
:100130000E94F50180E066E00E94040280E091E008
:100140000E94A40281E060E00E94040280E291E04B
:1001500012C0002311F50E94F50180E066E00E94C4
:10016000040280E091E00E94A40281E060E00E942D
:10017000040284E391E00E94A40282E064E00E9411
:10018000040282E191E00E94A40283E066E00E9402
:1001900004028AED0E94900201E0EE2089F1002322
:1001A00011F50E94F50180E066E00E94040280E003
:1001B00091E00E94A40281E060E00E9404028AE4CF
:1001C00091E00E94A40282E064E00E94040282E1C5
:1001D00091E00E94A40283E066E00E9404028AED9E
:1001E0000E94900201E087E60E94B802882309F489
:1001F00098C0FF2009F095C00E94AB02EE24F2C027
:10020000002311F50E94F50180E066E00E940402DF
:1002100080E091E00E94A40281E060E00E9404027C
:100220008CE591E00E94A40282E064E00E94040256
:1002300082E191E00E94A40283E066E00E94040251
:100240008AED0E94900201E087E60E94B8028823AE
:1002500009F467C0FF2009F064C00E94A902EE24DF
:10026000E394C0C0002309F05CC00E94F50180E067
:1002700066E00E94040280E091E00E94A40281E016
:1002800060E00E9404028DE691E039C0002309F08D
:1002900048C00E94F50180E066E00E94040280E010
:1002A00091E00E94A40281E060E00E94040285E8DF
:1002B00091E025C00023A9F50E94F50180E066E0E9
:1002C0000E94040280E091E00E94A40281E060E0CC
:1002D0000E9404028CE991E012C0002311F50E94F3
:1002E000F50180E066E00E94040280E091E00E9457
:1002F000A40281E060E00E94040280EB91E00E9491
:10030000A40282E064E00E94040282E191E00E9483
:10031000A40283E066E00E9404028AED0E9490023B
:1003200001E081E066E00E9404028BEB91E00E9414
:10033000A40282E064E00E94040283EC91E00E9447
:10034000A40220E008C0FE013197F1F70197D9F728
:100350002F5F243019F084EC99E0F5CF0E94F5016D
:1003600020E00AC0FE013197F1F70197D9F72F5F1E
:10037000243011F410E006C084EC99E0F3CF18307B
:1003800008F0A4CEFF20A1F485E70E94B8028823DC
:1003900011F011500AC084E60E94B802882309F4C3
:1003A00095CE173009F48FCE1F5FFF24F3948ECEC5
:1003B00081E60E94B802882309F088CE0E94F501E8
:1003C00081ED91E00E94A40220E009C0FE01319776
:1003D000F1F70197D9F72F5F243009F477CE84EC39
:1003E00099E0F4CFFF24F39440CF8091C00085FFC3
:1003F000FCCF8EEF8093C6008091C00085FFFCCFBC
:1004000081E58093C6000895982F8091C00085FFF4
:10041000FCCF8EEF8093C6008091C00085FFFCCF9B
:1004200085E48093C600992329F48091C00085FF5C
:10043000FCCF17C0913031F48091C00085FFFCCF14
:10044000605C0FC0923031F48091C00085FFFCCF1A
:100450006C5E07C0933041F48091C00085FFFCCFF3
:100460006C5A6093C60008958091C00085FFFCCF50
:100470001092C600089524EC30E0F9011182108238
:10048000A2ECB0E08C9180648C93549AE1ECF0E0A3
:100490008081886080838C9186608C931092C500E7
:1004A00083E3F901808383E390E09183808308955F
:1004B0000E943B0284EC99E025EF30E0F90131978E
:1004C000F1F70197D9F784EC99E025EF30E0F901D5
:1004D0003197F1F70197D9F78091C00085FFFCCFE4
:1004E0008EEF8093C6008091C00085FFFCCF81E530
:1004F0008093C6008091C00085FFFCCF8EEF809373
:10050000C6008091C00085FFFCCF83E58093C600C4
:100510008091C00085FFFCCF87E08093C6000895DE
:10052000982F8091C00085FFFCCF9093C60008955E
:10053000FC0106C08091C00085FFFCCF9093C600EF
:1005400091919923B9F708950E9498020895219AEC
:100550000895299A089529980895389A0895409AF7
:10056000089540980895289A5F9A5E9A5D9A089532
:10057000853711F483B116C0843631F489B1809582
:10058000881F8827881F0895873631F489B182959E
:1005900086958695837006C0823739F489B1829535
:1005A00086958770809581700895813611F080E07E
:1005B000089589B1807E19F080E090E0089583B1BC
:0A05C000809581700895F894FFCF34
:1005CA005E0053656E736F722052656164696E676F
:1005DA00730028507265737320477265656E29002F
:1005EA0050726F6772616D2050756D702054696D1D
:1005FA00696E670050726F6772616D2053656E7322
:10060A006F722054696D696E67005475726E204F5F
:10061A004646207468652050756D70005475726E78
:10062A00204F4E207468652050756D7000547572A5
:10063A006E204F4E20746865204368656D204669B8
:10064A006C746572005475726E204F4E2074686522
:10065A002042696F2046696C746572005475726E27
:10066A00204F46462065766572797468696E670020
:10067A00536C656570204D6F64650057656C636FD8
:10068A006D6500546F2041717561706F6E69637397
:10069A0000427574746F6E20697320667265650016
:00000001FF
