:100000000C9434000C9451000C9451000C94510049
:100010000C9451000C9451000C9451000C9451001C
:100020000C9451000C9451000C9451000C9453000A
:100030000C9451000C9451000C9451000C945100FC
:100040000C9451000C9451000C9451000C945100EC
:100050000C9451000C9451000C9451000C945100DC
:100060000C9451000C94510011241FBECFEFD8E026
:10007000DEBFCDBF11E0A0E0B1E0EAE3F6E002C0F0
:1000800005900D92A23DB107D9F721E0A2EDB1E0B4
:1000900001C01D92A63DB207E1F70E947F010C94BA
:1000A0001B030C9400001F920F920FB60F921124A5
:1000B0002F933F934F935F936F937F938F939F9370
:1000C000AF93BF93EF93FF938091D2019091D301AF
:1000D000A091D401B091D5010196A11DB11D8093CD
:1000E000D2019093D301A093D401B093D501809114
:1000F000D2019091D301A091D401B091D501029782
:10010000A105B105A9F41092D2011092D301109269
:10011000D4011092D5010E9445012FEF8FE797E09F
:10012000215080409040E1F700C000000E9447014C
:10013000FF91EF91BF91AF919F918F917F916F91BF
:100140005F914F913F912F910F900FBE0F901F9095
:1001500018950E943D010E94EA000E9443010E94FE
:100160004901E1E8F0E080818C60808381E19AE7D9
:100170009093890080938800EFE6F0E080818260B0
:1001800080830895CF93DF93A4ECB0E011961C9286
:100190001E92E2ECF0E0808180648083549AC1EC8E
:1001A000D0E0888188608883808186608083109217
:1001B000C50083E38C9383E390E011969C938E9328
:1001C000DF91CF9108959091C00095FFFCCF80936F
:1001D000C60008950E94C2002FEF8FE797E02150DC
:1001E00080409040E1F700C000002FEF8FE797E0DC
:1001F000215080409040E1F700C000008EEF0E9447
:10020000E30081E50E94E3008EEF0E94E30083E5B6
:100210000E94E30087E00C94E3008EEF0E94E3006D
:1002200081E50C94E300CF93DF93D82FC62F8EEF98
:100230000E94E30085E40E94E3008C2FDD2359F047
:1002400080E4D13039F084E1D23021F080E0D33045
:1002500011F484E58C0FDF91CF910C94E300CF93E0
:10026000DF93EC018991811103C0DF91CF91089553
:100270000E94E300F7CF0C942F01219A0895299A48
:10028000089529980895389A0895409A08954098B5
:100290000895289A5F9A5E9A5D9A0895853721F4A9
:1002A00083B1809581700895843631F489B1809549
:1002B000881F8827881F0895873639F489B186FBFF
:1002C000882780F991E089270895823729F489B138
:1002D00085FB882780F9F6CF813679F4189B0BC00F
:1002E0004F9B09C04E9B07C089B185FB882780F9C9
:1002F00091E08927D7CF81E0D5CF80E008950E9493
:10030000A90018E0D0E0C0E000E01A30F0F7E12FDB
:10031000F0E0E357FE4F0C9415039D01C201D50197
:10032000E8014F0262027502A202B502EC0217E078
:10033000CD2FD82FEACF10E0FBCFC11154C10E94BE
:100340000D0166E080E00E94130180E091E00E94D0
:100350003B0160E081E00E94130182E091E00E9495
:100360003B0164E082E00E94130182E191E00E947F
:100370003B0166E083E00E9413018AED0E94E300E6
:10038000C1E031C1C1112FC10E940D0166E080E0C2
:100390000E94130180E091E00E943B0160E081E057
:1003A0000E94130180E291E0DACFC1111CC10E94CA
:1003B0000D0166E080E00E94130180E091E00E9460
:1003C0003B0160E081E00E94130184E391E0C7CF2C
:1003D0000023A9F1C11121C00E940D0166E080E057
:1003E0000E94130180E091E00E943B0160E081E007
:1003F0000E9413018AE491E00E943B0164E082E0E4
:100400000E94130182E191E00E943B0166E083E0DB
:100410000E9413018AED0E94E30087E60E944E01CC
:10042000882309F4EEC00D2FD11103C00E944101B1
:1004300000E0CD2F81E60E944E01DC2F79CFC11163
:1004400021C00E940D0166E080E00E94130180E05F
:1004500091E00E943B0160E081E00E9413018CE585
:1004600091E00E943B0164E082E00E94130182E17E
:1004700091E00E943B0166E083E00E9413018AED57
:100480000E94E30087E60E944E01C82F882309F4EA
:10049000BAC0D111CECF0E943F010C2FCACFC111DB
:1004A000A2C00E940D0166E080E00E94130180E07E
:1004B00091E00E943B0160E081E00E9413018DE623
:1004C00091E04DCFC1118FC00E940D0166E080E028
:1004D0000E94130180E091E00E943B0160E081E016
:1004E0000E94130185E891E03ACFC11121C00E941A
:1004F0000D0166E080E00E94130180E091E00E941F
:100500003B0160E081E00E9413018CE991E00E94D0
:100510003B0164E082E00E94130182E191E00E94CD
:100520003B0166E083E00E9413018AED0E94E30034
:1005300087E60E944E01882309F461C0D11170C082
:1005400019E0F6CEC111F4CF0E940D0166E080E003
:100550000E94130180E091E00E943B0160E081E095
:100560000E94130180EB91E0D2CF66E081E00E940F
:1005700013018BEB91E00E943B0164E082E00E945A
:10058000130183EC91E00E943B012FEF8FE797E08E
:10059000215080409040E1F700C000002FEF8FE72E
:1005A00097E0215080409040E1F700C000002FEF1D
:1005B0008FE797E0215080409040E1F700C00000B5
:1005C0002FEF8FE797E0215080409040E1F700C087
:1005D00000000E940D0110E00E940D0178948D2F03
:1005E000183008F02ACFD11125CF85E70E944E019F
:1005F000882359F0112309F49ACE115099CEC1E005
:10060000EECFC02FF0CF00E0BBCE84E60E944E01BB
:10061000882309F412CF173009F48DCE1F5F88CEDE
:100620008D2F183008F084CE04CFEE0FFF1F0590F9
:0A063000F491E02D0994F894FFCF37
:10063A005E0053656E736F722052656164696E67FE
:10064A00730028507265737320477265656E2900BE
:10065A0050726F6772616D2050756D702054696DAC
:10066A00696E670050726F6772616D2053656E73B1
:10067A006F722054696D696E67005475726E204FEF
:10068A004646207468652050756D70005475726E08
:10069A00204F4E207468652050756D700054757235
:1006AA006E204F4E20746865204368656D20466948
:1006BA006C746572005475726E204F4E20746865B2
:1006CA002042696F2046696C746572005475726EB7
:1006DA00204F46462065766572797468696E6700B0
:1006EA00536C656570204D6F64650057656C636F68
:1006FA006D6500546F2041717561706F6E69637327
:02070A000000ED
:00000001FF
