:100000000C9434000C9451000C9451000C94510049
:100010000C9451000C9451000C9451000C9451001C
:100020000C9451000C9451000C9451000C9453000A
:100030000C9451000C9451000C9451000C945100FC
:100040000C9451000C9451000C9451000C945100EC
:100050000C9451000C9451000C9451000C945100DC
:100060000C9451000C94510011241FBECFEFD8E026
:10007000DEBFCDBF12E0A0E0B1E0EAEBFAE202C0E1
:1000800005900D92A03BB107D9F722E0A0EBB2E0BA
:1000900001C01D92AE3BB207E1F70E94A90D0C947E
:1000A0005B150C9400001F920F920FB60F92112453
:1000B0000F931F932F933F934F935F936F937F9370
:1000C0008F939F93AF93BF93EF93FF93CF93DF9360
:1000D000CDB7DEB7EC97DEBFCDBF8091B502909172
:1000E000B602A091B702B091B8020196A11DB11D50
:1000F0008093B5029093B602A093B702B093B80272
:100100008091B402893009F0B0C080910001409123
:10011000B5025091B6026091B7027091B80290E0BA
:10012000B0E0A0E084179507A607B70709F08BC0D9
:100130000E94AA010E949C010E947902182F092F97
:1001400061E080E00E94E5010F931F9382E091E05F
:100150009F938F938E01075D1F4F1F930F930E94F4
:100160008312C8010E9417020E94AF02182F092FA4
:1001700061E081E00E94E5010F931F938DE091E023
:100180009F938F938E010B5E1F4F1F930F930E94BF
:100190008312C8010E9417020E94D702182F092F4C
:1001A00061E082E00E94E5010F931F9387E191E0F7
:1001B0009F938F938E010F5F1F4F1F930F930E948A
:1001C0008312C8010E9417020E9423020E942B0280
:1001D0000E941B022FEF8FE995E021508040904054
:1001E000E1F700C000002FEF8FE995E0215080403B
:1001F0009040E1F700C000002FEF8FE995E021501B
:1002000080409040E1F700C000002FEF8FE995E0BB
:10021000215080409040E1F700C000000E9425027C
:100220000E942D020E941D020E949C011092B502A4
:100230001092B6021092B7021092B8020FB6F8945C
:10024000DEBF0FBECDBF81E60E943402882369F075
:100250001092010188E08093B4021092B5021092CE
:10026000B6021092B7021092B802EC960FB6F8944C
:10027000DEBF0FBECDBFDF91CF91FF91EF91BF9158
:10028000AF919F918F917F916F915F914F913F912E
:100290002F911F910F910F900FBE0F901F901895E7
:1002A0000E9419020E94AA010E941F020E942F02AE
:1002B0000E9465020E949B02E1E8F0E080818C6070
:1002C000808381E19AE79093890080938800EFE62C
:1002D000F0E080818260808378940895529A5A9ADF
:1002E000A4ECB0E011961C921E92549AE2ECF0E05D
:1002F0008081806C808380818360808380818B7F1C
:100300008083E1ECF0E080818860808383E390E08B
:1003100011969C938E9308959091C00095FFFCCF09
:100320008093C6008091C00086FFFCCF8091C00002
:1003300080648093C00008955A988EEF0E948C01CB
:1003400081E50E948C0186E69EE00197F1F70000AE
:100350005A9A08952FEF8FE392E021508040904009
:10036000E1F700C000000E946E012FEF8FE995E0D9
:10037000215080409040E1F700C000002FEF8FE94E
:1003800095E0215080409040E1F700C000000C94BF
:100390009C015A988EEF0E948C0181E40E948C018E
:1003A00086E69EE00197F1F700005A9A08955A9860
:1003B0008EEF0E948C0182E40E948C0186E69EE012
:1003C0000197F1F700005A9A0895CF93DF93D82F41
:1003D000C62F5A988EEF0E948C0185E40E948C01F2
:1003E00086E69EE00197F1F700008C2FDD2359F09F
:1003F00080E4D13039F084E1D23021F080E0D33094
:1004000011F484E58C0F0E948C015A9ADF91CF91F0
:100410000895CF93DF93EC018991811103C0DF919F
:10042000CF9108955A980E948C015A9AF5CF0C9456
:100430000902219A0895299A089529980895389AC9
:100440003D9A279A0895409A089540980895459AAC
:100450000895459808952F9A08952F980895289AF9
:100460005F9A5E9A5D9A0895853721F483B18095ED
:1004700081700895843631F489B18095881F88276A
:10048000881F0895873639F489B186FB882780F95B
:1004900091E089270895823729F489B185FB88275F
:1004A00080F9F6CF813679F4189B0BC04F9B09C0B9
:1004B0004E9B07C089B185FB882780F991E0892789
:1004C000D7CF81E0D5CF80E00895EAE7F0E08081E2
:1004D00084608083808182608083ECE7F0E08081AB
:1004E0008F77808380818F7B808380818F7D8083E5
:1004F000089580917C00807F80937C0080917C00B7
:10050000816080937C0080917A00806880937A007B
:1005100080917A00806480937A0080917A0086FFCF
:10052000FCCF809178009091790063E070E00E94A8
:100530001912CB010895EAE7F0E08081846080839E
:10054000808182608083ECE7F0E080818F77808318
:1005500080818F7B808380818F7D808308958091CF
:100560007C00807F80937C0080917C0082608093FF
:100570007C0080917A00806880937A0080917A0074
:10058000806480937A0080917A0086FFFCCF20916E
:100590007800309179004EE0429FC001439F900D5A
:1005A00011246CED75E00E941912CB010895809121
:1005B0007C00807F80937C0080917C0081608093B0
:1005C0007C0080917C00826080937C0080917A0026
:1005D000806880937A0080917A00806480937A00AA
:1005E00080917A0086FFFCCF80917800909179000D
:1005F00067E070E00E941912CB010895FF920F93FB
:100600001F93CF93DF93C82FD42F152F062FF72ECC
:1006100087FF09C040E050E0BA0187E70E94FE0270
:10062000823048F5CF775B9A8FEF0E949C0D5B98E4
:100630008FEF0E949C0D8C2F0E949C0D8F2D0E948D
:100640009C0D802F0E949C0D812F0E949C0D8D2F50
:100650000E949C0D85E9C03421F087E8C83409F078
:1006600081E00E949C0DCAE08FEF0E949C0D87FFE5
:1006700002C0C150C9F7DF91CF911F910F91FF9038
:100680000895CF92DF92EF92FF920F931F93CF9333
:10069000DF9300D000D0CDB7DEB70E94750D5B9A16
:1006A0001AE08FEF0E949C0D1150D9F740E050E006
:1006B000BA0180E40E94FE02182F813009F04CC07C
:1006C0004AEA51E060E070E088E40E94FE02813076
:1006D00009F059C0CE0101967C016E0195E0C90E6A
:1006E000D11C87018FEF0E949C0DF80181938F012F
:1006F000CE16DF06B9F78B81813071F58C818A3A8D
:1007000059F590E1C92E97E2D92E40E050E060E023
:1007100070E489EE0E94FE02811117C040E050E0B3
:10072000BA018AE70E94FE02811116C08FEF0E9473
:100730009C0DF70181937F010E171F07B9F789817F
:1007400014E086FF0AC01CE008C0F6EFFA95F1F746
:1007500081E0C81AD108C9F610E01093B9025B9A7B
:100760008FEF0E949C0D81E0111180E00F900F909F
:100770000F900F90DF91CF911F910F91FF90EF900D
:10078000DF90CF90089540E050E0BA0189EE0E94DA
:10079000FE0201E4823010F412E009EE80E1E82E5E
:1007A00087E2F82E40E050E0BA01802F0E94FE025E
:1007B00081110AC040E052E060E070E080E50E94F4
:1007C000FE028111C9CFC9CFF6EFFA95F1F781E0AA
:1007D000E81AF10839F7C0CFCF92DF92EF92FF927B
:1007E0000F931F93CF93DF937C0169018091B9022E
:1007F00083FD07C089E0440F551F661F771F8A9548
:10080000D1F781E50E94FE02811138C08FEF0E946E
:100810009C0D8F3FD9F38E3F89F5C2E0D2E0C01B1B
:10082000D10BCC19DD0981E0C81AD10818F5E11403
:10083000F10459F00E0D1F1D8FEF0E949C0DF70162
:1008400081937F010E171F07B9F78FEF0E949C0D50
:100850002197D9F7D0E0C0E05B9A8FEF0E949C0D02
:10086000CE01DF91CF911F910F91FF90EF90DF901C
:10087000CF9008958FEF0E949C0DD5CFC1E0D0E0BE
:10088000EBCF0F931F93CF93DF93EA018C01892B5A
:1008900099F54115510561057105F1F18091B90294
:1008A00083FD07C089E0440F551F661F771F8A9597
:1008B000D1F788E50E94FE02C1E0D0E0811126C098
:1008C0008FEF0E949C0D8EEF0E949C0D80E092E0C5
:1008D0009093BB028093BA0217C0F80181918F01F7
:1008E0000E949C0D8091BA029091BB020197909357
:1008F000BB028093BA022197209731F08091BA020F
:100900009091BB02892B49F7D0E0C0E0CE01DF9186
:10091000CF911F910F910895C091BA02D091BB025F
:100920002197CD3FFFEFDF0771F48FEF0E949C0D01
:10093000C82FD0E0CF3FD105C1F38F718530A1F42E
:1009400008E813E109C080E00E949C0DE9CF86EF22
:100950008A95F1F7015011098FEF0E949C0D8F3F8E
:1009600041F00115110599F75B9A8FEF0E949C0DDC
:10097000CDCF012BC9F3D0E0C0E0F6CFFC016281FE
:10098000738190E080E0982F872F762F6627218152
:10099000622B982F872F762F66272081622B089550
:1009A0000F931F93E091BC02F091BD029B01AC013B
:1009B000225031094109510986819781A085B1856D
:1009C0000297A109B109281739074A075B0778F48C
:1009D000A281B0E00E9455120289138924893589C9
:1009E000600F711F821F931F1F910F91089560E088
:1009F00070E0CB01F9CF0F931F93CF93DF93DC010E
:100A0000E091BC02F091BD0211961C921E921496C8
:100A10006D917D918D919C91179761307105810544
:100A2000910521F1068117812085318560177107B5
:100A300082079307D8F4611571058105910521F4AA
:100A40006685778580899189ED01688779878A87AE
:100A50009B870E94D0046C877D878E879F8790E05C
:100A600080E0DF91CF911F910F91089581E090E098
:100A7000F8CFCF92DF92EF92FF920F931F93CF9315
:100A8000DF9300D000D0CDB7DEB7623071058105AD
:100A9000910528F461E070E080E090E035C0E091DD
:100AA000BC02F091BD02C680D780E084F1846C1551
:100AB0007D058E059F0570F72081233059F7AB0126
:100AC000BC019A012F773327220F331F220F331FC8
:100AD00097E076956795579547959A95D1F7C28493
:100AE000D384E484F5844C0D5D1D6E1D7F1D04E0F0
:100AF00010E0CE0101960E94EC03892B59F6CE013D
:100B000001960E94BE049F700F900F900F900F905F
:100B1000DF91CF911F910F91FF90EF90DF90CF90D9
:100B20000895CF92DF92EF92FF920F931F93CF938E
:100B3000DF93EC016A017B0102E010E02EEF31E06F
:100B40000E94EC03892BF1F48881998185359A4ABA
:100B5000D9F422E530E0B701A601CE010E94EC03F2
:100B6000892BA1F481E0288139812634314409F4AC
:100B700080E0DF91CF911F910F91FF90EF90DF9078
:100B8000CF90089583E0F5CF82E0F3CF81E0F1CFFD
:100B90004F925F926F927F929F92AF92BF92CF924D
:100BA000DF92EF92FF920F931F93CF93DF93CDB716
:100BB000DEB7AC970FB6F894DEBF0FBECDBF5C01B9
:100BC0001092BD021092BC020E94410380FDEAC057
:100BD00040E050E0BA01CE0101960E949105C12C7F
:100BE000D12C76018130B9F500E110E02EEB31E037
:100BF00040E050E0BA01CE0101960E94EC03892B3F
:100C0000C1F081E090E0AC960FB6F894DEBF0FBE65
:100C1000CDBFDF91CF911F910F91FF90EF90DF90AB
:100C2000CF90BF90AF909F907F906F905F904F90CC
:100C300008958D81811103C086E090E0E4CFCE015C
:100C400009960E94BE046B017C01BC01A601CE0185
:100C500001960E9491058330A1F28111EDCF04E24B
:100C600010E02DE030E0B701A601CE0101960E9410
:100C7000EC03892B31F62A853B8550E040E02115B5
:100C8000310531F4CE0148960E94BE049B01AC01AF
:100C9000AC81B0E00E94551269A77AA78BA79CA7E8
:100CA0004A805B80712C612CC40CD51CE61CF71C9F
:100CB000D5011A96CD92DD92ED92FC921D97998006
:100CC00012969C9212970D811E8115961C930E937D
:100CD00014976F81788590E080E06115710521F4AB
:100CE000CE0144960E94BE0424E0169507952A95ED
:100CF000E1F7980150E040E02DA33EA34FA358A791
:100D0000641975098609970929A53AA54BA55CA51B
:100D1000621B730B840B950B2DA13EA14FA158A50F
:100D2000621B730B840B950B292D30E050E040E0E3
:100D30000E942D12DA01C9010296A11DB11DF50113
:100D400086839783A087B187873F9F4FA105B10511
:100D500008F472CF83E0D5018C93CE0180960E9477
:100D6000BE04F50166877787808B918B2DA13EA10C
:100D70004FA158A5C20ED31EE41EF51E89A59AA543
:100D8000ABA5BCA5C80ED91EEA1EFB1EC28AD38A1B
:100D9000E48AF58A1182B092BD02A092BC0290E072
:100DA00080E031CF82E090E02ECF4F925F926F9241
:100DB0007F928F929F92BF92CF92DF92EF92FF929B
:100DC0000F931F93CF93DF93CDB7DEB7EC970FB69A
:100DD000F894DEBF0FBECDBFC090BC02D090BD0264
:100DE000C114D10409F44AC1F60111829E012F5C9D
:100DF0003F4F3CA32BA39C017901F90180812F5F18
:100E00003F4F8032C9F38F3209F479011DA21EA22F
:100E10001FA218A6F7018081A0E2BA2E803208F046
:100E2000D8C0CE0181960E94FB041982009709F474
:100E3000F8C0EC960FB6F894DEBF0FBECDBFDF91C1
:100E4000CF911F910F91FF90EF90DF90CF90BF90C7
:100E50009F908F907F906F905F904F900895B19288
:100E6000BDC0E30EF11C81E0913208F080E01B96DA
:100E70008C93CE0181960E94FB040097D1F629A1A4
:100E80003AA12F703327F5E0220F331FFA95E1F7CF
:100E90004DA55EA56FA578A900E210E0CE010196F0
:100EA0000E94EC03892B19F081E090E0C2CF898188
:100EB000811103C083E090E0BCCF8C8583FD13C01B
:100EC0000BA11CA19E012F5F3F4FD801B801655FA8
:100ED0007F4FA617B70709F463C0F90141919F013D
:100EE0009D914917B1F309A11AA10F5F1F4F11F38B
:100EF0008DA59EA5AFA5B8A90097A105B105D1F212
:100F000098012F703327232BD9F48090BC02909046
:100F1000BD020196A11DB11D8DA79EA7AFA7B8ABBD
:100F200069A57AA58BA59CA5F401611571058105BC
:100F3000910549F4848195810817190708F0BACF03
:100F40001AA309A39CCF2281E22FE150FF0BAF012E
:100F50009801E4E036952795EA95E1F724233523B7
:100F6000232B71F70E9439056230710581059105C7
:100F700008F49ACFF4014680578060847184641528
:100F800075058605970508F095CF69A77AA78BA701
:100F90009CA70E94D0046DA77EA78FA798ABD0CF47
:100FA000F801938591113DC084FF84CF8D899E897E
:100FB000B0E0A0E0DC01992788274B8D5C8D70E0C4
:100FC00060E0842B952BA62BB72B8DA39EA3AFA3FC
:100FD000B8A7ABA1BCA1FD01CD010B96E817F9079D
:100FE00009F03DCF20E0E0E088E031E03E0FEE0D7B
:100FF000FF2DF11D9081913208F433CF9F3209F417
:1010000030CF9E32F1F1281708F02BCFFD01E20F0F
:10101000F11D9083982F81E0820F282FE32F892FD5
:10102000E4CF8981882309F445CF8C8584FD42CFA4
:101030008D899E89B0E0A0E0DC01992788274B8D3F
:101040005C8D70E060E0842B952BA62BB72BF6010E
:10105000868F978FA0A3B1A3CE014D960E94BE04A8
:10106000F601628F738F848F958F168A178A108E80
:10107000118E81E0818390E080E0DBCE85E090E01E
:10108000D8CE883009F0EDCE9BE0C7CF6F927F922B
:101090008F929F92AF92BF92CF92DF92EF92FF9288
:1010A0000F931F93CF93DF935C017B014A01C091A3
:1010B000BC02D091BD02FA011182108285E090E05D
:1010C000209709F447C0898180FFA8C08A8D9B8D35
:1010D000AC8DBD8D4E895F89688D798D841B950B94
:1010E000A60BB70BA70170E060E084179507A60771
:1010F000B70708F47C01612C82E0782E88C08E89C5
:101100009F89A88DB98DAC01BD01517066277727E5
:10111000452B462B472B09F04AC0DA80DA94AC0104
:10112000BD0129E076956795579547952A95D1F7A2
:10113000D42251F5892B8A2B8B2BD9F46E8D7F8D80
:1011400088A199A16230710581059105C8F41982C1
:1011500081E090E0DF91CF911F910F91FF90EF9090
:10116000DF90CF90BF90AF909F908F907F906F90C7
:1011700008956AA17BA18CA19DA10E943905E2CFAF
:101180006AA37BA38CA39DA36AA17BA18CA19DA133
:101190000E94D0046115710581059105C1F26D0DA4
:1011A000711D811D911D6EA37FA388A799A72E890C
:1011B0003F893170C301821B930B67018E159F0518
:1011C00008F46C014EA15FA168A579A58601C5014F
:1011D0000E94EC03892B09F0BACF8E899F89A88DD4
:1011E000B98D8C0D9D1DA11DB11D8E8B9F8BA88F60
:1011F000B98FEC18FD08F401808191818C0D9D1D43
:1012000091838083A114B10411F0AC0CBD1CE114D6
:10121000F10409F074CF90E080E09CCF84E090E08E
:1012200099CF4F925F926F927F928F929F92AF92DF
:10123000BF92CF92DF92EF92FF920F931F93CF93C3
:10124000DF936C018B015A01C091BC02D091BD02A9
:10125000FA011182108285E090E02097A1F0898147
:1012600080FFE1C08074672B29F58823E9F040E016
:1012700050E0BA0190E080E00E944104892BA1F087
:10128000198281E090E0DF91CF911F910F91FF9043
:10129000EF90DF90CF90BF90AF909F908F907F9016
:1012A0006F905F904F90089589818F7B898390E044
:1012B00080E0E9CF81110AC08E899F89A88DB98D00
:1012C00088279E7F8E8B9F8BA88FB98F8A8D9B8D51
:1012D000AC8DBD8D4E895F89688D798D841B950B92
:1012E000A60BB70BA80170E060E084179507A6076E
:1012F000B70708F48C01812C82E0982E88C08E8973
:101300009F89A88DB98D9C013170232B09F040C0B5
:10131000FA80FA94AC01BD0129E07695679557955E
:1013200047952A95D1F7F42299F4892B8A2B8B2B98
:1013300009F072C06E8D7F8D88A199A16230710510
:101340008105910508F49CCF6AA37BA38CA39DA380
:101350006AA17BA18CA19DA10E94D0046115710599
:101360008105910509F48CCFAB01BC014F0D511DD6
:10137000611D711D4EA35FA368A779A790E080E06F
:101380000E944104892B09F07BCF89818064898385
:101390008E899F8991709401281B390B7801201741
:1013A000310708F479012701712C612CB301A701E1
:1013B000C6010E944104892B09F062CF8E899F8962
:1013C000A88DB98D840D951DA61DB71D8E8B9F8B85
:1013D000A88FB98FCE0CDF1C0E191F09F5012081D3
:1013E0003181E20EF31EF182E0822C01F1E05F22F6
:1013F000452869F440E050E0BA0190E080E00E94A6
:101400004104892B09F03CCF89818F7B89830115A9
:10141000110509F074CF4BCF6AA17BA18CA19DA1CE
:101420000E9439058BCF84E090E02DCF4F925F92E0
:101430006F927F928F929F92AF92BF92CF92DF92E4
:10144000EF92FF92CF93DF9300D000D000D0CDB7C2
:10145000DEB72091BC023091BD023E832D83211561
:10146000310509F40BC1D90111962C91119720FF78
:1014700008C15A96CD90DD90ED90FC905D976C156B
:101480007D058E059F0510F46B017C01ED81FE81C9
:1014900046885788608C718C168A178A108E118E38
:1014A000C114D104E104F10409F4E5C08280912C57
:1014B000B12CA12C39E0880C991CAA1CBB1C3A95B4
:1014C000D1F7411451046104710409F460C0B1E022
:1014D0004B1A510861087108C701B60161507109C2
:1014E00081099109A50194010E942D1229833A8353
:1014F0004B835C83C301B201A50194010E942D12AC
:1015000089819A81AB81BC8182179307A407B507B3
:10151000F0F188279927DC0188199909AA09BB09E4
:1015200084219521A621B721ED81FE81868B978BA1
:10153000A08FB18FC81AD90AEA0AFB0A62A173A167
:1015400084A195A18C149D04AE04BF0470F1AD81FB
:10155000BE8156968D909D90AD90BC905997C80CC9
:10156000D91CEA1CFB1CFD01C68AD78AE08EF18ECD
:101570000E94D004AB01BC01411551056105710504
:1015800009F05DC0AD81BE8111961C9225C0AD8170
:10159000BE815E966D917D918D919C919197FD019B
:1015A00062A373A384A395A3CDCF0E9439056230B3
:1015B00071058105910568F0AD81BE8116964D904B
:1015C0005D906D907C90199764157505860597055B
:1015D000D0F0ED81FE81118281E090E026960FB679
:1015E000F894DEBF0FBECDBFDF91CF91FF90EF909B
:1015F000DF90CF90BF90AF909F908F907F906F9033
:101600005F904F900895AD81BE8192966D937D93CA
:101610008D939C93959756964D905D906D907C9090
:101620005997480C591C6A1C7B1CFD01468A578A35
:10163000608E718EC818D908EA08FB0883CFED8147
:10164000FE8182818150990B092E000CAA0BBB0BE5
:1016500029E0F694E794D794C7942A95D1F78C2182
:101660009D21AE21BF21480F591F6A1F7B1F46A332
:1016700057A360A771A790E080E0B0CF85E090E02D
:10168000ADCF84E090E0AACFCF935B9A8FEF97E441
:101690000197F1F700C000008FEF0E949C0D5B9A4C
:1016A000C0E58FEF0E949C0DC150D9F7CF910895EE
:1016B000FF920F931F93CF93DF93D42F152F062FF5
:1016C000F72EC22F80640E949C0D8F2D0E949C0DCE
:1016D000802F0E949C0D812F0E949C0D8D2F0E94B7
:1016E0009C0D8C2F8160DF91CF911F910F91FF9006
:1016F0000C949C0DCF93C9E08FEF0E949C0D8F3FFF
:1017000011F4C150C9F7CF910895CF93DF93EC0145
:101710000E947A0B88838FEF0E949C0D8983DF9152
:10172000CF9108950F931F93CF93C62F8C01C15073
:1017300020F4CF911F910F9108958FEF0E949C0D7F
:10174000F80181938F01F3CFCF93DF93EC010E94D7
:101750007A0B8883823038F464E0CE010196DF9101
:10176000CF910C94920BDF91CF910895CF93DF939B
:10177000EC010E947A0B8883823038F464E0CE0159
:101780000196DF91CF910C94920BDF91CF91089548
:10179000CF938FEF0E949C0D5B988FEF0E949C0D62
:1017A00024E940E050E0BA0180E40E94580B0E9416
:1017B0007A0BC82F8FEF0E949C0D5B9A8FEF0E94CF
:1017C0009C0D8C2FCF910895CF93DF93EC018FEF79
:1017D0000E949C0D5B988FEF0E949C0D26E84AEAC0
:1017E00051E060E070E088E40E94580BCE010E9456
:1017F000B60B8FEF0E949C0D5B9A8FEFDF91CF911C
:101800000C949C0DCF93DF93EC018FEF0E949C0D05
:101810005B988FEF0E949C0D20E040E050E0BA0101
:101820008DE00E94580BCE010E94850B8FEF0E9425
:101830009C0D5B9A8FEFDF91CF910C949C0D8F9252
:101840009F92AF92BF92CF92DF92EF92FF920F934F
:101850001F93CF93DF934B015C016A0179018FEFF6
:10186000F90180830E949C0D5B988FEF0E949C0D74
:1018700020E0B501A40181E50E94580B0E947A0B7B
:10188000082FCBE1D6E08F3F71F58FEF0E949C0DC2
:101890005B9A8FEF0E949C0D802FDF91CF911F915B
:1018A0000F91FF90EF90DF90CF90BF90AF909F90FF
:1018B0008F9008958FEF0E949C0D182F8F3F99F005
:1018C0008E3FA1F4E601FEEFDF1A8FEF0E949C0D20
:1018D0008993CC16DD06C9F78FEF0E949C0D8FEF20
:1018E0000E949C0D03C0219729F71FEFF701108379
:1018F000CCCF8F929F92AF92BF92CF92DF92FF9206
:101900000F931F93CF93DF934B015C016A01890111
:101910008FEFF90180830E949C0D5B988FEF0E94EE
:101920009C0D20E0B501A40188E50E94580B0E949F
:101930007A0BF82E811128C08EEF0E949C0DE601D3
:10194000FEEFDF1A89910E949C0DCC15DD05D1F7C1
:10195000C3E4DFE021978FEF39F00E949C0D8F3FA9
:10196000C9F39FEFF80190838F71853069F4F80116
:101970008083C3E4DFE08FEF0E949C0D811104C0DF
:101980002197C9F7F80110828FEF0E949C0D5B9A96
:101990008FEF0E949C0D8F2DDF91CF911F910F91A2
:1019A000FF90DF90CF90BF90AF909F908F90089561
:1019B000CF93DF93EC018FEF0E949C0D5B988FEF2C
:1019C0000E949C0D8F3FD9F720E040E050E0BA0123
:1019D0008AE70E94580BCE010E94A40B8FEF0E9451
:1019E0009C0D5B9A8FEFDF91CF910C949C0DCF9360
:1019F0008FEF0E949C0D5B988FEF0E949C0D20E062
:101A000040E050E0BA0187E70E94580B0E947A0B31
:101A1000C82F8FEF0E949C0D5B9A8FEF0E949C0D48
:101A20008C2FCF910895CF938FEF0E949C0D5B98E0
:101A30008FEF0E949C0D0E947A0BC82F8FEF0E949F
:101A40009C0D5B9A8FEF0E949C0D8C2FCF91089577
:101A50000F931F93CF93DF9300D000D01F92CDB789
:101A6000DEB70E94440B1FEF0E94C80B89838130B0
:101A700091F483E397E00197F1F7CE0101960E947C
:101A8000E40B898112E0813019F58D810FEF8A3ADC
:101A900041F013E01DC0115039F711E019C0015099
:101AA00011F10E94F70C8983823018F40E94130D03
:101AB000898383E397E00197F1F719811111EFCF43
:101AC00083E397E00197F1F7CE0101960E94D80CCD
:101AD000812F0F900F900F900F900F90DF91CF916B
:101AE0001F910F91089514E0F3CF539A5B9AA4ECE1
:101AF000B0E011961C921E92549AE2ECF0E08081C4
:101B00008064808380818068808380818E7F8083F1
:101B100080818D7F808380818B7F8083E1ECF0E00A
:101B20008081886080838081806180838BE190E008
:101B300011969C938E9308959091C00095FFFCCFD1
:101B40008093C6008091C00087FFFCCF8091C600C3
:101B50000895CF93DF93CDB7DEB7EC970FB6F89427
:101B6000DEBF0FBECDBF0E94500188E08093B4025B
:101B700010E000E0612C712CE12CF12C55245394E1
:101B80008AE0282E6E0125E1C20ED11C5E0139E2E9
:101B9000A30EB11CCE0101964C01E091B402EC30D1
:101BA00008F0A7C2F0E0E952F24F0C944F12E30D97
:101BB0000C0E3C0E950EFF0E680FC10FF30F1B109D
:101BC00095109A10F31001111AC00E949C016AE04E
:101BD00080E00E94E5018BE291E00E94170262E042
:101BE00081E00E94E5018DE291E00E9417026AE027
:101BF00083E00E94E5018DE391E00E94170287E6F1
:101C00000E943402882309F4F1C31111F7C3209212
:101C1000B40200E0182F6DC2011122C00E949C0185
:101C20006AE080E00E94E5018BE291E00E941702E9
:101C300064E081E00E94E5018FE391E00E941702D9
:101C400062E082E00E94E5018CE491E00E941702CC
:101C50006AE083E00E94E5018DE391E00E941702B3
:101C600087E60E943402882309F4C0C31111C6C359
:101C70009BE09093B402CDCFFF2061F101111AC017
:101C80000E949C016AE080E00E94E5018BE291E005
:101C90000E94170262E081E00E94E5018CE591E07C
:101CA0000E9417026AE083E00E94E5018DE391E063
:101CB0000E94170287E60E943402482E0F2D8823C7
:101CC00009F417C2012F11112EC00E941D0200E05D
:101CD000F12C60C001111AC00E949C016AE080E0F2
:101CE0000E94E5018BE291E00E94170262E081E030
:101CF0000E94E5018EE691E00E9417026AE083E00F
:101D00000E94E5018DE391E00E94170287E60E94A0
:101D10003402482E882309F468C311116FC30E944E
:101D20001B0200E0142DF12EE4C1EE20A9F10111F7
:101D300022C00E949C016AE080E00E94E5018BE2E3
:101D400091E00E94170266E081E00E94E5018FE7C2
:101D500091E00E94170262E082E00E94E50188E8BB
:101D600091E00E9417026AE083E00E94E5018DE3A2
:101D700091E00E94170287E60E943402482E0E2D41
:101D8000882309F4B6C1012F111137C00E94250222
:101D900000E0E12C142DADC1011122C00E949C0174
:101DA0006AE080E00E94E5018BE291E00E94170268
:101DB00066E081E00E94E50188E991E00E94170257
:101DC00062E082E00E94E50188E891E00E9417024B
:101DD0006AE083E00E94E5018DE391E00E94170232
:101DE00087E60E943402482E882309F401C31111AA
:101DF00005C30E94230200E0142DE12E7AC1772052
:101E0000A1F1011122C00E949C016AE080E00E94C1
:101E1000E5018BE291E00E94170266E081E00E94FA
:101E2000E5018FE791E00E94170265E082E00E94E1
:101E3000E50180EA91E00E9417026AE083E00E94D7
:101E4000E5018DE391E00E94170287E60E943402CB
:101E5000482E072D882309F44CC1012F111136C0DB
:101E60000E94290200E0712C95CF011122C00E942E
:101E70009C016AE080E00E94E5018BE291E00E9413
:101E8000170266E081E00E94E50188E991E00E9486
:101E9000170265E082E00E94E50180EA91E00E947D
:101EA00017026AE083E00E94E5018DE391E00E9461
:101EB000170287E60E943402482E882309F49AC24A
:101EC00011119CC20E94270200E0142D712E11C135
:101ED000662061F101111AC00E949C016AE080E055
:101EE0000E94E5018BE291E00E94170263E081E02D
:101EF0000E94E5018BEA91E00E9417026AE083E00C
:101F00000E94E5018DE391E00E94170287E60E949E
:101F10003402482E062D882309F4EBC0012F11113D
:101F20002EC00E942D0200E0612C34CF01111AC096
:101F30000E949C016AE080E00E94E5018BE291E052
:101F40000E94170263E081E00E94E5018BEB91E0C3
:101F50000E9417026AE083E00E94E5018DE391E0B0
:101F60000E94170287E60E943402482E882309F453
:101F700043C2111143C20E942B0200E0142D612EB6
:101F8000B8C001111AC00E949C016AE080E00E9462
:101F9000E5018BE291E00E94170260E081E00E947F
:101FA000E5018AEC91E00E9417026AE083E00E945A
:101FB000E5018DE391E00E94170287E60E9434025A
:101FC000482E882309F412C2111118C20E941D0262
:101FD0000E9425020E9429020E942D0200E0612C2D
:101FE000712CE12C75CE01111AC00E949C016AE08F
:101FF00080E00E94E5018BE291E00E94170265E01B
:1020000081E00E94E5018EED91E00E9417026AE0F6
:1020100083E00E94E5018DE391E00E94170287E6CC
:102020000E943402882309F4E1C11111E7C129E0BB
:102030002093B402EECD0E949C0166E081E00E94F4
:10204000E50189EE91E00E94170264E082E00E94BF
:10205000E50181EF91E00E9417023FEF8FE995E0E3
:10206000315080409040E1F700C000002FEF3FE981
:1020700085E0215030408040E1F700C000009FEF34
:102080002FE935E0915020403040E1F700C00000DA
:102090008FEF9FE925E0815090402040E1F700C09C
:1020A00000003FEF8FE995E0315080409040E1F72C
:1020B00000C000002FEF3FE985E021503040804014
:1020C000E1F700C000009FEF2FE935E0915020407C
:1020D0003040E1F700C000008FEF9FE925E081501C
:1020E00090402040E1F700C000000E949C01109247
:1020F000B4028091B402883088F411110FC085E7D2
:102100000E943402882309F47FC19091B402911196
:1021100077C197E09093B40200E0182F81E60E9407
:10212000340281113ACD10E038CD0E949C015092CA
:102130000101DFCF0E949C010E94AF02482E392E80
:1021400061E081E00E94E5013F924F928FEF91E0C4
:102150009F938F93DF92CF920E948312C6010E94B9
:1021600017020E947902482E392E61E080E00E9419
:10217000E5013F924F9287E092E09F938F93BF9249
:10218000AF920E948312C5010E9417020E94D702DB
:10219000482E392E61E082E00E94E5013F924F9285
:1021A00080E192E09F938F939F928F920E9483127F
:1021B000C4010E9417023FEF8FE995E03150804043
:1021C0009040E1F700C0000082E70E9434020FB6A1
:1021D000F894DEBF0FBECDBF882309F48ACF1092DA
:1021E000B40200E086CF011122C00E949C0160E091
:1021F00080E00E94E50182E292E00E94170260E026
:1022000081E00E94E50186E392E00E94170260E00F
:1022100082E00E94E5018AE492E00E94170260E0F9
:1022200083E00E94E5018DE592E00E94170282E7BB
:102230000E943402882329F0111103C05092B40285
:10224000E8CC85E70E943402482E882309F45BC05D
:10225000111159C00E949C0160E081E00E94E501DB
:1022600081E792E00E94170233E0309300018FEF84
:102270009FE925E0815090402040E1F700C0000038
:102280003FEF8FE995E0315080409040E1F700C08A
:1022900000002FEF3FE985E0215030408040E1F71A
:1022A00000C000009FEF2FE935E091502040304002
:1022B000E1F700C000008FEF9FE925E081509040DA
:1022C0002040E1F700C000003FEF8FE995E031507A
:1022D00080409040E1F700C000002FEF3FE985E02B
:1022E000215030408040E1F700C000009FEF2FE90F
:1022F00035E0915020403040E1F700C0000050929E
:10230000B40200E047CD84E60E943402482E8823C0
:1023100009F456C0111154C00E949C0160E081E094
:102320000E94E50186E892E00E94170285E0809312
:1023300000019FEF2FE935E0915020403040E1F758
:1023400000C000008FEF9FE925E0815090402040C1
:10235000E1F700C000003FEF8FE995E03150804089
:102360009040E1F700C000002FEF3FE985E02150E9
:1023700030408040E1F700C000009FEF2FE935E0DA
:10238000915020403040E1F700C000008FEF9FE9FE
:1023900025E0815090402040E1F700C000003FEF71
:1023A0008FE995E0315080409040E1F700C0000097
:1023B0002FEF3FE985E0215030408040E1F79DCF8D
:1023C00087E60E943402482E882381F0111116C03E
:1023D0000E949C0160E081E00E94E5018BE992E0AF
:1023E0000E94170220920001A4CFF12C01E081CEBF
:1023F000E12CFCCF712CFACF612CF8CF012F79CED4
:102400009091B402915086CE84E60E943402182F37
:10241000882309F483CE8091B402873021F410928E
:10242000B40200E07BCE8091B4028F5F8093B4024F
:10243000F8CF97FB072E16F4009407D077FD09D04C
:102440000E94601207FC05D03EF4909581959F4F45
:102450000895709561957F4F0895A1E21A2EAA1BE9
:10246000BB1BFD010DC0AA1FBB1FEE1FFF1FA21744
:10247000B307E407F50720F0A21BB30BE40BF50B41
:10248000661F771F881F991F1A9469F760957095CA
:10249000809590959B01AC01BD01CF010895EE0F91
:1024A000FF1F0590F491E02D09940E947412A59FDE
:1024B000900DB49F900DA49F800D911D112408953F
:1024C000AA1BBB1B51E107C0AA1FBB1FA617B7075A
:1024D00010F0A61BB70B881F991F5A95A9F7809576
:1024E0009095BC01CD010895A29FB001B39FC0019A
:1024F000A39F700D811D1124911DB29F700D811D30
:102500001124911D0895AEE0B0E0E9E8F2E10C94E9
:1025100032150D891E8986E08C831A8309838FEF1B
:102520009FE79E838D83AE01475E5F4F6F89788DF5
:10253000CE0101960E94A6122F813885020F131F2B
:10254000F80110822E96E4E00C944E15ABE0B0E05A
:10255000ECEAF2E10C9424157C013B018A01FC01B8
:1025600017821682838181FFC8C1CE0101965C016A
:10257000F7019381F30193FD859193FF81913F01D1
:10258000882309F453C1853239F493FD859193FF73
:1025900081913F01853229F4B70190E00E949614A1
:1025A000E7CF912C212C312CFFE1F31538F08B3241
:1025B00011F190F4803209F1833229F137FC3CC0EB
:1025C00020ED280F2A3050F536FE20C08AE0989E74
:1025D000200D1124922E06C08D3291F0803371F7B8
:1025E000689430F8F30193FD859193FF81913F0149
:1025F0008111DACF21C0689431F8689432F8F2CFB3
:10260000689433F8EFCF689434F8ECCFEAE02E9E6C
:10261000200D1124222E689435F8E4CF8E3229F44F
:1026200036FC04C1689436F8DDCF8C3619F4689412
:1026300037F8D8CF8836B1F2982F9F7D95549330D4
:10264000E0F08336A1F18337C1F1833509F063C02F
:102650002801F2E04F0E511CF801C080D180692D95
:1026600070E036FC02C06FEF7FEFC6010E9480145D
:102670004C01689437F882010AC00C5F1F4FFFE3DA
:10268000F98388248394912C6501E89437F833FE0C
:102690002DC0522C8114910471F5552009F468CF96
:1026A000B70180E290E00E9496145A94F6CFF801A8
:1026B000808189830E5F1F4FE4CF2801F2E04F0E27
:1026C000511CF801C080D180692D70E036FC02C039
:1026D0006FEF7FEFC6010E948B144C018201D5CFB2
:1026E000B70180E290E00E9496142A9428141904FD
:1026F00009F0B0F7CECFF60137FC859137FE819116
:102700006F01B70190E00E94961451105A94F1E0C5
:102710008F1A9108BFCF843619F0893609F077C037
:10272000F80137FE6BC060817181828193810C5FFB
:102730001F4FF32DFF763F2E97FF09C09095809590
:10274000709561957F4F8F4F9F4F689437F82AE0BF
:1027500030E0A5010E94C614C82ECA188C2C432C48
:1027600036FE0CC0E89440F8C91440F434FE05C0AD
:1027700032FC03C0F32DFE7E4F2E892C44FE95C003
:10278000FE01EC0DF11D8081803309F087C0242DFE
:10279000297E422E842D8870582E43FC95C040FE21
:1027A0008FC09C2C821418F42C0C922C981844FE88
:1027B00091C0B70180E390E00E94961442FE09C0E8
:1027C00088E790E041FE02C088E590E0B7010E94F2
:1027D0009614C91408F48AC0CA94D12C9FEFC91A60
:1027E000D90ACA0CDB1CF60182916F01B70190E097
:1027F0000E949614AC14BD04B1F74FCF6081718173
:10280000072E000C880B990B0E5F1F4F92CFD32C15
:10281000E894D4F82AE030E0853739F1232D297F78
:10282000D22E8F3601F148F48835A9F0F701868160
:1028300097812B96E2E10C944015803749F0883758
:10284000A9F7D4FE02C06894D2F820E130E00DC0B0
:102850006894D4F8F6CF34FE03C0822F8660D82E59
:1028600020E132E002C028E030E0F801D7FE0FC0DE
:1028700060817181828193810C5F1F4FA5010E944D
:10288000C614C82ECA183D2CE89437F867CF60816B
:10289000718190E080E00E5F1F4FF0CF42FC02C0DC
:1028A000839478CF8394839475CF842D867809F4AC
:1028B00071CFF6CFB70180E290E00E949614839426
:1028C0008214C0F3512C73CF522C5818821408F480
:1028D0006ECFF8CF842D867809F47BCF8BE241FE52
:1028E00080E247FC8DE2B70190E071CFB70180E351
:1028F00090E00E9496149A946CCF8FEF9FEF99CF3F
:10290000FC010590615070400110D8F780959095BA
:102910008E0F9F1F0895FC016150704001900110BF
:10292000D8F7809590958E0F9F1F08950F931F9352
:10293000CF93DF93182F092FEB018B8181FD09C005
:102940001FEF0FEF812F902FDF91CF911F910F91EC
:10295000089582FF14C02E813F818C819D812817AC
:1029600039073CF4E881F981CF0101969983888386
:1029700010838E819F8101969F838E83E3CFE885AC
:10298000F985812F0995892BA1F3DACFFA01AA27BE
:10299000283051F1203181F1E8946F936E7F6E5FA2
:1029A0007F4F8F4F9F4FAF4FB1E03ED0B4E03CD050
:1029B000670F781F891F9A1FA11D680F791F8A1F33
:1029C000911DA11D6A0F711D811D911DA11D20D09A
:1029D00009F468943F912AE0269F11243019305D54
:1029E0003193DEF6CF010895462F4770405D419345
:1029F000B3E00FD0C9F7F6CF462F4F70405D4A3392
:102A000018F0495D31FD4052419302D0A9F7EACF59
:102A1000B4E0A6959795879577956795BA95C9F788
:102A200000976105710508959B01AC010A2E06947B
:102A30005795479537952795BA95C9F7620F731F34
:102A4000841F951FA01D08952F923F924F925F9271
:102A50006F927F928F929F92AF92BF92CF92DF92AE
:102A6000EF92FF920F931F93CF93DF93CDB7DEB713
:102A7000CA1BDB0B0FB6F894DEBF0FBECDBF0994A7
:102A80002A88398848885F846E847D848C849B84FE
:102A9000AA84B984C884DF80EE80FD800C811B810C
:102AA000AA81B981CE0FD11D0FB6F894DEBF0FBE3B
:0A2AB000CDBFED010895F894FFCFAB
:102ABA000501544453203D2025642C200050482011
:102ACA003D2025642C200054656D70203D2025642E
:102ADA002063656C636975732C20005E0053656E14
:102AEA00736F722052656164696E67730076005075
:102AFA00726F6772616D2050756D70002620536584
:102B0A006E736F722054696D696E67005475726EC8
:102B1A00204F4646207468652050756D70005475C4
:102B2A00726E204F4E207468652050756D70005487
:102B3A0075726E204F4646004368656D6963616C25
:102B4A002046696C746572005475726E204F4E008F
:102B5A0042696F2046696C746572005475726E2002
:102B6A004F464620486561746572005475726E203E
:102B7A004F4E20486561746572005475726E204F1D
:102B8A0046462065766572797468696E6700536C8B
:102B9A00656570204D6F64650057656C636F6D6580
:102BAA0000546F2041717561706F6E6963730050D4
:102BBA0048203D20256400544453203D20256400CC
:102BCA0054656D70203D2025642063656C636975CA
:102BDA00730050726573732027552720746F203154
:102BEA00306D696E73005072657373202744272015
:102BFA00746F20686F75726C7900507265737320F8
:102C0A0027472720746F206461696C7900507265C8
:102C1A0073732027522720746F2072657475726E41
:102C2A000074696D696E672073657420746F203152
:102C3A00306D696E730074696D696E6720736574AF
:102C4A0020746F20686F75726C790074696D696E93
:102C5A00672073657420746F206461696C79000061
:00000001FF
