:100000000C9434000C9449000C9449000C94490061
:100010000C9449000C9449000C9449000C9449003C
:100020000C9449000C9449000C9449000C9449002C
:100030000C9449000C9449000C9449000C9449001C
:100040000C9449000C9449000C9449000C9449000C
:100050000C9449000C9449000C9449000C944900FC
:100060000C9449000C94490011241FBECFEFD8E036
:10007000DEBFCDBF11E0A0E0B1E0E2EAF9E002C0EE
:1000800005900D92A231B107D9F70E944B000C9454
:10009000CF040C940000AF92BF92CF92DF92EF9208
:1000A000FF920F931F93DF93CF93CDB7DEB7649783
:1000B0000FB6F894DEBF0FBECDBF0E94BB000E94FA
:1000C00081018E010F5F1F4F20E0A22E21E0B22E92
:1000D00098E0C92E91E0D92E85EFE82EF12C0E94F0
:1000E000CF0000D000D000D0EDB7FEB73196ADB74D
:1000F000BEB712961C930E931197B382A28295837A
:1001000084830E94F7018DB79EB706960FB6F894C8
:100110009EBF0FBE8DBFC8010E94CD010E94FB0093
:1001200000D000D000D0EDB7FEB73196ADB7BEB766
:1001300012961C930E931197D382C2829583848367
:100140000E94F7018DB79EB706960FB6F8949EBF32
:100150000FBE8DBFC8010E94CD0120E009C0F7018C
:100160003197F1F70197D9F72F5F283009F4B7CF0E
:1001700084EC99E0F4CFEAE7F0E08081846080834A
:10018000808182608083ECE7F0E080818F778083DC
:1001900080818F7B808380818F7D80830895809193
:1001A0007C00807F80937C0080917C0082608093C3
:1001B0007C0080917A00806880937A0080917A0038
:1001C000806480937A0080917A0086FFFCCF209132
:1001D000780030917900220F331FC90143E0880F66
:1001E000991F4A95E1F7821B930B6CED75E00E9415
:1001F000D001CB01089580917C00807F80937C00AA
:1002000080917C00816080937C0080917C00826082
:1002100080937C0080917A00806880937A0080913E
:100220007A00806480937A0080917A0086FFFCCF08
:100230002091780030917900C90108958091C00023
:1002400085FFFCCF8EEF8093C6008091C00085FFB4
:10025000FCCF81E58093C6000895982F8091C0005F
:1002600085FFFCCF8EEF8093C6008091C00085FF94
:10027000FCCF85E48093C600992329F48091C000C7
:1002800085FFFCCF17C0913031F48091C00085FF0D
:10029000FCCF605C0FC0923031F48091C00085FFCC
:1002A000FCCF6C5E07C0933041F48091C00085FFA5
:1002B000FCCF6C5A6093C60008958091C00085FF02
:1002C000FCCF1092C600089524EC30E0F9011182B1
:1002D0001082A2ECB0E08C9180648C93549AE1EC93
:1002E000F0E08081886080838C9186608C9310928E
:1002F000C50083E3F901808383E390E091838083E9
:1003000008950E94640184EC99E025EF30E0F90142
:100310003197F1F70197D9F784EC99E025EF30E0B8
:10032000F9013197F1F70197D9F78091C00085FF66
:10033000FCCF8EEF8093C6008091C00085FFFCCF7C
:1003400081E58093C6008091C00085FFFCCF8EEFD1
:100350008093C6008091C00085FFFCCF83E5809329
:10036000C6008091C00085FFFCCF87E08093C60067
:100370000895982F8091C00085FFFCCF9093C60010
:100380000895FC0106C08091C00085FFFCCF9093CA
:10039000C60091919923B9F708950E94C10108956B
:1003A00097FB092E07260AD077FD04D00CD006D083
:1003B00000201AF4709561957F4F0895F6F7909597
:1003C00081959F4F0895AA1BBB1B51E107C0AA1F2F
:1003D000BB1FA617B70710F0A61BB70B881F991FE6
:1003E0005A95A9F780959095BC01CD010895AEE08E
:1003F000B0E0EDEFF1E00C94A6040D891E8986E0D3
:100400008C831A8309838FEF9FE79E838D839E01E0
:10041000275E3F4FCE0101966F89788DA9010E941A
:100420001B022F813885020F131FF80110822E96B0
:10043000E4E00C94C204ABE0B0E0E1E2F2E00C9442
:1004400098043C012B015A01FC011782168283811A
:1004500081FD03C06FEF7FEFC6C19AE0892E1E01B8
:100460000894211C311CF3012381F20123FD8591A5
:1004700023FF81912F01882309F4B2C1853239F419
:1004800023FD859123FF81912F01853229F490E08E
:10049000B3010E940E04E7CF982FFF24EE24992485
:1004A000FFE1FF15D0F09B3269F09C3228F49032C6
:1004B00059F0933291F40EC09D3249F0903369F4B3
:1004C00041E024C052E0F52A84E0F82A28C098E0F0
:1004D000F92A25C0E0E1FE2A22C0F7FC29C0892FB5
:1004E00080538A3070F4F6FE05C0989C902C11243D
:1004F000980E15C0E89CE02C1124E80EF0E2FF2ACB
:100500000EC09E3229F4F6FC6BC140E4F42A07C009
:100510009C3619F450E8F52A02C0983649F4F201E5
:1005200023FD959123FF91912F01992309F0B8CFD5
:10053000892F8554833018F08052833038F444E09A
:1005400050E0A40EB51E5FE359830FC0933631F01F
:10055000933779F0933509F056C020C0F5018081BA
:10056000898342E050E0A40EB51E610101E010E075
:1005700012C0F501C080D180F6FC03C06FEF7FEFA1
:1005800002C0692D70E042E050E0A40EB51EC60125
:100590000E9403048C015FE7F52214C0F501C080BE
:1005A000D180F6FC03C06FEF7FEF02C0692D70E0D1
:1005B00042E050E0A40EB51EC6010E94F8038C0173
:1005C00050E8F52AF3FE07C01AC080E290E0B301BC
:1005D0000E940E04EA948E2D90E008171907A8F3E4
:1005E0000EC0F601F7FC8591F7FE81916F0190E056
:1005F000B3010E940E04E110EA940150104001156D
:10060000110579F7EAC0943611F0993669F5F7FECD
:1006100008C0F501208131814281538184E090E05E
:100620000AC0F501808191819C01442737FD4095E6
:10063000542F82E090E0A80EB91E9FE6F92257FFE2
:1006400009C050954095309521953F4F4F4F5F4FD2
:10065000E0E8FE2ACA01B901A1012AE030E00E94C7
:100660003A04D82ED21840C0953729F41F2D1F7E8A
:100670002AE030E01DC01F2D197F9F3661F09037B2
:1006800020F4983509F0ACC00FC0903739F0983796
:1006900009F0A6C004C028E030E00AC0106114FDD3
:1006A000146020E130E004C014FD166020E132E067
:1006B00017FF08C0F501608171818281938144E058
:1006C00050E008C0F50180819181BC0180E090E09C
:1006D00042E050E0A40EB51EA1010E943A04D82EBB
:1006E000D2188FE7F82EF122F6FE0BC05EEFF5224E
:1006F000D91438F4F4FE07C0F2FC05C08FEEF822DE
:1007000002C01D2D01C0192DF4FE0DC0FE01ED0D1E
:10071000F11D8081803319F499EEF92208C01F5F22
:10072000F2FE05C003C08F2D867809F01F5F0F2DE4
:10073000F3FC14C0F0FE0FC01E1510F09D2C0BC072
:100740009D2C9E0C911A1E2D06C080E290E0B301F4
:100750000E940E041F5F1E15C0F304C01E1510F486
:10076000E11A01C0EE2404FF0FC080E390E0B30162
:100770000E940E0402FF1DC001FD03C088E790E047
:100780000EC088E590E00BC0802F867891F001FFC5
:1007900002C08BE201C080E2F7FC8DE290E0B30181
:1007A0000E940E0406C080E390E0B3010E940E0494
:1007B0009A94D914C0F3DA94F101ED0DF11D808102
:1007C00090E0B3010E940E04DD20A9F706C080E28C
:1007D00090E0B3010E940E04EA94EE20C1F743CEEC
:1007E000F30166817781CB012B96E2E10C94B4048E
:1007F000FC010590615070400110D8F780959095EC
:100800008E0F9F1F0895FC016150704001900110F0
:10081000D8F7809590958E0F9F1F08950F931F9383
:10082000CF93DF938C01EB018B8181FF1BC082FF93
:100830000DC02E813F818C819D812817390764F47A
:10084000E881F9810193F983E88306C0E885F98599
:10085000802F0995892B31F48E819F8101969F838A
:100860008E8302C00FEF1FEFC801DF91CF911F9160
:100870000F910895FA01AA27283051F1203181F112
:10088000E8946F936E7F6E5F7F4F8F4F9F4FAF4F98
:10089000B1E03ED0B4E03CD0670F781F891F9A1FAB
:1008A000A11D680F791F8A1F911DA11D6A0F711D5F
:1008B000811D911DA11D20D009F468943F912AE06B
:1008C000269F11243019305D3193DEF6CF01089553
:1008D000462F4770405D4193B3E00FD0C9F7F6CF84
:1008E000462F4F70405D4A3318F0495D31FD40524C
:1008F000419302D0A9F7EACFB4E0A69597958795E2
:1009000077956795BA95C9F70097610571050895C0
:100910009B01AC010A2E069457954795379527956C
:10092000BA95C9F7620F731F841F951FA01D089504
:100930002F923F924F925F926F927F928F929F92EF
:10094000AF92BF92CF92DF92EF92FF920F931F93DD
:10095000CF93DF93CDB7DEB7CA1BDB0B0FB6F8948E
:10096000DEBF0FBECDBF09942A88398848885F84CE
:100970006E847D848C849B84AA84B984C884DF803F
:10098000EE80FD800C811B81AA81B981CE0FD11D23
:100990000FB6F894DEBF0FBECDBFED010895F894F9
:0209A000FFCF87
:1009A2005048203D2025640054656D70203D20256F
:0209B2006400DF
:00000001FF
