:100000000C9434000C9449000C9449000C94490061
:100010000C9449000C9449000C9449000C9449003C
:100020000C9449000C9449000C9449000C9449002C
:100030000C9449000C9449000C9449000C9449001C
:100040000C9449000C9449000C9449000C9449000C
:100050000C9449000C9449000C9449000C944900FC
:100060000C9449000C94490011241FBECFEFD8E036
:10007000DEBFCDBF11E0A0E0B1E0EEE8F9E002C0E4
:1000800005900D92A231B107D9F70E945A010C9444
:10009000C5040C940000EAE7F0E08081846080836E
:1000A000808182608083ECE7F0E080818F778083BD
:1000B00080818F7B808380818F7D80830895809174
:1000C0007C00807F80937C0080917C0082608093A4
:1000D0007C0080917A00806880937A0080917A0019
:1000E000806480937A0080917A0086FFFCCF209113
:1000F0007800309179004EE0429FC001439F900DFF
:1001000011246CED75E00E94C501CB01089580912A
:100110007C00807F80937C0080917C008160809354
:100120007C0080917C00826080937C0080917A00CA
:10013000806880937A0080917A00806480937A004E
:1001400080917A0086FFFCCF8091780090917900B1
:1001500097FD4F9625E0959587952A95E1F70895A7
:10016000529A5A9AA4ECB0E011961C921E92549A9C
:10017000E2ECF0E08081806C80838081836080830A
:1001800080818B7F8083E1ECF0E0808188608083D8
:1001900083E390E011969C938E9308952FEF8FE365
:1001A00092E0215080409040E1F700C000000E94A2
:1001B000B0002FEF8FE995E0215080409040E1F7AB
:1001C00000C000002FEF8FE995E021508040904063
:1001D000E1F700C0000008959091C00095FFFCCFAA
:1001E0008093C6008091C00086FFFCCF8091C00044
:1001F00080648093C00008955A988EEF0E94EC00AE
:1002000081E50E94EC0086E69EE00197F1F7000090
:100210005A9A08955A988EEF0E94EC0081E40E9449
:10022000EC0086E69EE00197F1F700005A9A0895E7
:100230005A988EEF0E94EC0082E40E94EC0086E661
:100240009EE00197F1F700005A9A0895CF93DF934B
:10025000D82FC62F5A988EEF0E94EC0085E40E949A
:10026000EC0086E69EE00197F1F700008C2FDD237D
:1002700059F080E4D13039F084E1D23021F080E0CF
:10028000D33011F484E58C0F0E94EC005A9ADF9170
:10029000CF910895CF93DF93EC018991811103C031
:1002A000DF91CF9108955A980E94EC005A9AF5CFA9
:1002B0000C944A01CF93DF93CDB7DEB764970FB6A6
:1002C000F894DEBF0FBECDBF0E944B000E94CE004F
:1002D00080E0C82E81E0D82E8E010F5F1F4F98E07E
:1002E000E92E91E0F92E0E94FC000E945F00B82EDA
:1002F000A92E61E080E00E942601AF92BF92DF92BA
:10030000CF921F930F930E94ED01C8010E945801E4
:100310000E948700B82EA92E61E081E00E9426018C
:10032000AF92BF92FF92EF921F930F930E94ED0145
:10033000C8010E9458012FEF8FE995E021508040BD
:100340009040E1F700C000002FEF8FE995E02150C9
:1003500080409040E1F700C000002FEF8FE995E06A
:10036000215080409040E1F700C000002FEF8FE95E
:1003700095E0215080409040E1F700C000000FB6AA
:10038000F894DEBF0FBECDBFAECF97FB072E16F49D
:10039000009407D077FD09D00E94D90107FC05D051
:1003A0003EF4909581959F4F0895709561957F4F8C
:1003B0000895AA1BBB1B51E107C0AA1FBB1FA617AC
:1003C000B70710F0A61BB70B881F991F5A95A9F7FE
:1003D00080959095BC01CD010895AEE0B0E0E3EFCB
:1003E000F1E00C949C040D891E8986E08C831A83AD
:1003F00009838FEF9FE79E838D83AE01475E5F4F3A
:100400006F89788DCE0101960E9410022F81388568
:10041000020F131FF80110822E96E4E00C94B8042A
:10042000ABE0B0E0E6E1F2E00C948E047C013B012D
:100430008A01FC0117821682838181FFC8C1CE0127
:1004400001965C01F7019381F30193FD859193FF80
:1004500081913F01882309F453C1853239F493FD1A
:10046000859193FF81913F01853229F4B70190E096
:100470000E940004E7CF912C212C312CFFE1F315D1
:1004800038F08B3211F190F4803209F1833229F186
:1004900037FC3CC020ED280F2A3050F536FE20C036
:1004A0008AE0989E200D1124922E06C08D3291F084
:1004B000803371F7689430F8F30193FD859193FFD1
:1004C00081913F018111DACF21C0689431F868949D
:1004D00032F8F2CF689433F8EFCF689434F8ECCF69
:1004E000EAE02E9E200D1124222E689435F8E4CFE8
:1004F0008E3229F436FC04C1689436F8DDCF8C3690
:1005000019F4689437F8D8CF8836B1F2982F9F7DC8
:1005100095549330E0F08336A1F18337C1F18335F0
:1005200009F063C02801F2E04F0E511CF801C080B1
:10053000D180692D70E036FC02C06FEF7FEFC601FD
:100540000E94EA034C01689437F882010AC00C5FEC
:100550001F4FFFE3F98388248394912C6501E8946D
:1005600037F833FE2DC0522C8114910471F55520BB
:1005700009F468CFB70180E290E00E9400045A9429
:10058000F6CFF801808189830E5F1F4FE4CF2801E9
:10059000F2E04F0E511CF801C080D180692D70E04F
:1005A00036FC02C06FEF7FEFC6010E94F5034C01DD
:1005B0008201D5CFB70180E290E00E9400042A9426
:1005C0002814190409F0B0F7CECFF60137FC859155
:1005D00037FE81916F01B70190E00E940004511035
:1005E0005A94F1E08F1A9108BFCF843619F08936FA
:1005F00009F077C0F80137FE6BC06081718182819C
:1006000093810C5F1F4FF32DFF763F2E97FF09C09C
:1006100090958095709561957F4F8F4F9F4F68940F
:1006200037F82AE030E0A5010E943004C82ECA182D
:100630008C2C432C36FE0CC0E89440F8C91440F4CE
:1006400034FE05C032FC03C0F32DFE7E4F2E892CF4
:1006500044FE95C0FE01EC0DF11D8081803309F050
:1006600087C0242D297E422E842D8870582E43FC6D
:1006700095C040FE8FC09C2C821418F42C0C922C38
:10068000981844FE91C0B70180E390E00E940004F6
:1006900042FE09C088E790E041FE02C088E590E094
:1006A000B7010E940004C91408F48AC0CA94D12C6E
:1006B0009FEFC91AD90ACA0CDB1CF60182916F019F
:1006C000B70190E00E940004AC14BD04B1F74FCF15
:1006D00060817181072E000C880B990B0E5F1F4FF4
:1006E00092CFD32CE894D4F82AE030E0853739F162
:1006F000232D297FD22E8F3601F148F48835A9F0B9
:10070000F701868197812B96E2E10C94AA04803749
:1007100049F08837A9F7D4FE02C06894D2F820E1E6
:1007200030E00DC06894D4F8F6CF34FE03C0822FB9
:100730008660D82E20E132E002C028E030E0F801E7
:10074000D7FE0FC060817181828193810C5F1F4F42
:10075000A5010E943004C82ECA183D2CE89437F831
:1007600067CF6081718190E080E00E5F1F4FF0CF16
:1007700042FC02C0839478CF8394839475CF842DF8
:10078000867809F471CFF6CFB70180E290E00E943D
:10079000000483948214C0F3512C73CF522C581848
:1007A000821408F46ECFF8CF842D867809F47BCFBD
:1007B0008BE241FE80E247FC8DE2B70190E071CF11
:1007C000B70180E390E00E9400049A946CCF8FEF11
:1007D0009FEF99CFFC010590615070400110D8F750
:1007E000809590958E0F9F1F0895FC016150704079
:1007F00001900110D8F7809590958E0F9F1F089556
:100800000F931F93CF93DF93182F092FEB018B8149
:1008100081FD09C01FEF0FEF812F902FDF91CF9146
:100820001F910F91089582FF14C02E813F818C810A
:100830009D81281739073CF4E881F981CF010196A1
:100840009983888310838E819F8101969F838E83F5
:10085000E3CFE885F985812F0995892BA1F3DACFBC
:10086000FA01AA27283051F1203181F1E8946F93E1
:100870006E7F6E5F7F4F8F4F9F4FAF4FB1E03ED087
:10088000B4E03CD0670F781F891F9A1FA11D680F25
:10089000791F8A1F911DA11D6A0F711D811D911D58
:1008A000A11D20D009F468943F912AE0269F1124CD
:1008B0003019305D3193DEF6CF010895462F477031
:1008C000405D4193B3E00FD0C9F7F6CF462F4F708C
:1008D000405D4A3318F0495D31FD4052419302D0EA
:1008E000A9F7EACFB4E0A695979587957795679590
:1008F000BA95C9F700976105710508959B01AC0190
:100900000A2E06945795479537952795BA95C9F7B6
:10091000620F731F841F951FA01D08952F923F9291
:100920004F925F926F927F928F929F92AF92BF92FF
:10093000CF92DF92EF92FF920F931F93CF93DF93AB
:10094000CDB7DEB7CA1BDB0B0FB6F894DEBF0FBE08
:10095000CDBF09942A88398848885F846E847D8455
:100960008C849B84AA84B984C884DF80EE80FD8057
:100970000C811B81AA81B981CE0FD11D0FB6F894CD
:0E098000DEBF0FBECDBFED010895F894FFCF8E
:10098E005048203D2025640054656D70203D202583
:02099E006400F3
:00000001FF
