:100000000C9434000C9451000C9451000C94510049
:100010000C9451000C9451000C9451000C9451001C
:100020000C9451000C9451000C9451000C9451000C
:100030000C9451000C9451000C9451000C945100FC
:100040000C9451000C9451000C9451000C945100EC
:100050000C9451000C9451000C9451000C945100DC
:100060000C9451000C94510011241FBECFEFD8E026
:10007000DEBFCDBF11E0A0E0B1E0E0E9F1E202C0F7
:1000800005900D92AC35B107D9F711E0ACE5B1E0C0
:1000900001C01D92A136B107E1F70E9453000C94F4
:1000A000C6100C9400000F931F93DF93CF93CDB72E
:1000B000DEB7C955D0400FB6F894DEBF0FBECDBF36
:1000C0000E94E20C389A409A20E048EB50E008C0C9
:1000D000FA013197F1F70197D9F72F5F283019F01E
:1000E00084EC99E0F5CFCE01C0960E946009282FDC
:1000F000882319F100D000D000D0EDB7FEB73196BB
:100100008E010D5F1F4FADB7BEB712961C930E93B5
:10011000119780E091E093838283248315820E946B
:10012000EE0D8DB79EB706960FB6F8949EBF0FBE24
:100130008DBF0E947C0DC8014CC080E191E00E94FF
:100140001B06282F882331F100D000D000D0EDB756
:10015000FEB731968E010D5F1F4FADB7BEB7129639
:100160001C930E93119789E191E0938382832483FA
:1001700015820E94EE0D8DB79EB706960FB6F894C5
:100180009EBF0FBE8DBF0E947C0DC8010E94AA0DAC
:10019000409831C060E070E080E090E00E94F003A1
:1001A000DE015796E2E4F1E089E101900D92815081
:1001B000E1F7CE01479669E170E08E010F5F1F4FB6
:1001C000A8010E943008882339F00E947C0D86E245
:1001D00091E00E94AA0D0FC080E090E060E070E026
:1001E000A8010E9430080E947C0D8AE391E00E94E1
:1001F000AA0D4098FFCF81E090E0C75ADF4F0FB6BD
:10020000F894DEBF0FBECDBFCF91DF911F910F914C
:100210000895DF92EF92FF920F931F93D82E7A01E9
:100220008B0187FF0BC087E740E050E060E070E0A3
:100230000E9409018230B0F58FE7D8225B9A8FEFD8
:100240000E94090D5B988FEF0E94090D8D2D0E9471
:10025000090D812F9927AA27BB270E94090DC801E4
:10026000AA27BB270E94090DBB27A12F902F8F2DF6
:100270000E94090D8E2D0E94090D80E4D81611F4FC
:1002800085E906C088E4D81611F487E801C081E04A
:100290000E94090D1AE08FEF0E94090D87FF02C02E
:1002A0001150C9F71F910F91FF90EF90DF900895C3
:1002B000FF920F931F93CF93DF938C010097D9F098
:1002C000EA010FC0F80181918F010E94090D809110
:1002D0005D0190915E01019790935E0180935D01B5
:1002E0002197209709F461C080915D0190915E0192
:1002F000892B41F75AC0411551056105710501F17E
:1003000080915C0183FD07C0E9E0440F551F661F23
:10031000771FEA95D1F788E50E940901882319F033
:10032000C1E0D0E044C08FEF0E94090D8EEF0E9423
:10033000090D80E092E090935E0180935D0135C0ED
:10034000C0915D01D0915E01229604C080E00E94C0
:10035000090D21972097D1F78FEF0E94090DC82F23
:10036000D0E0CF3FD105C1F3CE018F7190700597DA
:10037000B9F408E813E135EFF32E05C08F2D8A9507
:10038000F1F7015010408FEF0E94090D8F3F21F0CF
:100390000115110599F704C0012B11F0C0E0D0E060
:1003A0005B9A8FEF0E94090D02C0C0E0D0E0CE0141
:1003B000DF91CF911F910F91FF900895CF92DF921F
:1003C000EF92FF920F931F93CF93DF937C0169010C
:1003D00080915C0183FD07C0F9E0440F551F661F43
:1003E000771FFA95D1F781E50E940901882359F515
:1003F0008FEF0E94090D8F3FD9F38E3F21F5E60163
:1004000004C08FEF0E94090D21972097D1F7E114C6
:10041000F10449F0E8018FEF0E94090DF701819383
:100420007F012197C1F7CC27DD27CC19DD09CE5FED
:10043000DD4FC01BD10B8FEF0E94090D2197D9F71B
:10044000C0E0D0E002C0C1E0D0E05B9A8FEF0E9434
:10045000090DCE01DF91CF911F910F91FF90EF9089
:10046000DF90CF900895BF92CF92DF92EF92FF92EC
:100470000F931F93DF93CF9300D000D0CDB7DEB79B
:100480000E94E20C5B9A1AE08FEF0E94090D115056
:10049000D9F780E440E050E060E070E00E9409019C
:1004A000813009F072C088E44AEA51E060E070E00F
:1004B0000E940901813009F041C06E010894C11CFD
:1004C000D11C76018E010B5F1F4F8FEF0E94090D2B
:1004D000F70181937F01E017F107B9F78B81813034
:1004E00009F053C08C818A3A09F04FC000E117E24D
:1004F00025EFB22E07C08B2D8A95F1F701501040E1
:1005000009F443C089EE40E050E060E070E40E94EE
:100510000901882381F752C08FEF0E94090DF6016F
:1005200081936F01EE15FF05B9F7898186FD03C040
:1005300094E0F92E2BC08CE0F82E28C089EE40E024
:1005400050E060E070E00E940901823028F001E490
:10055000E02EFF24F39404C019EEE12EB2E0FB2E4E
:1005600000E117E2A5EFDA2E06C08D2D8A95F1F78E
:100570000150104051F08E2D40E050E060E070E0FE
:100580000E940901882389F724C0FF24F0925C01AE
:100590005B9A8FEF0E94090D80E0FF2009F481E053
:1005A0000F900F900F900F90CF91DF911F910F91AF
:1005B000FF90EF90DF90CF90BF9008958AE740E0E2
:1005C00050E060E070E00E940901882309F4A4CFA4
:1005D000DCCF80E540E052E060E070E00E9409017D
:1005E000882399F6D3CFFC01238130E040E050E02E
:1005F000542F432F322F2227828190E0A0E0B0E0D9
:10060000282B392B4A2B5B2B542F432F322F222799
:10061000818190E0A0E0B0E0282B392B4A2B5B2BA6
:10062000542F432F322F2227808190E0A0E0B0E0AA
:10063000282B392B4A2B5B2BB901CA010895CF9285
:10064000DF92EF92FF920F931F93CF93DF936C0192
:10065000C0915F01D0916001FC0111821082248160
:10066000358146815781213031054105510509F415
:100670004FC08E819F81A885B985281739074A0701
:100680005B0708F045C0211531054105510521F4EE
:100690002E853F8548895989F60120873187428711
:1006A00053877EEFE72E7FEFF72E7FEF072F7FEF49
:1006B000172FE20EF31E041F151F8E819F81A88540
:1006C000B9850297A109B109E816F9060A071B07BF
:1006D00028F020E030E040E050E012C02A8130E015
:1006E00040E050E0C801B7010E94AD0D9B01AC0194
:1006F0008A899B89AC89BD89280F391F4A1F5B1FD6
:10070000F601248735874687578720E030E002C00E
:1007100021E030E0C901DF91CF911F910F91FF904F
:10072000EF90DF90CF900895EF92FF920F931F9379
:10073000DF93CF9300D000D0CDB7DEB78B019C0103
:10074000E0915F01F09160016230710581059105D2
:10075000B0F186819781A085B185081719072A070E
:100760003B0768F58081833051F5B901A801A7E006
:100770007695679557954795AA95D1F78285938584
:10078000A485B585480F591F6A1F7B1F98012F77D5
:100790003070220F331F220F331F7E010894E11C9B
:1007A000F11CC70104E010E00E94DE01892B39F43E
:1007B000C7010E94F3029B01AC015F7004C021E0FD
:1007C00030E040E050E0B901CA010F900F900F9067
:1007D0000F90CF91DF911F910F91FF90EF900895AF
:1007E0002F923F924F925F926F927F928F929F9241
:1007F000AF92BF92CF92DF92EF92FF920F931F932F
:10080000CF93DF93E82FC0915F01D09160012097D3
:1008100019F425E030E005C1898180FD03C024E0A2
:1008200030E0FFC0EA8CFB8C0C8D1D8D4E2F592FB4
:10083000CB01DA013C014D01E614F7040805190566
:1008400010F437014801EE88FF88088D198D1E8A43
:100850001F8A188E198E611471048104910409F4A1
:10086000DEC08A81A82EBB24CC24DD2499E0AA0C0A
:10087000BB1CCC1CDD1C9A95D1F7E114F1040105D9
:100880001105B1F117012801089421083108410828
:100890005108C401B3016150704080409040A601EE
:1008A00095010E94CC0D79018A01C201B101A60116
:1008B00095010E94CC0DE216F30604071507C0F05F
:1008C00088279927DC018A199B09AC09BD09822177
:1008D0009321A421B5218E8B9F8BA88FB98F681A85
:1008E000790A8A0A9B0A2AA13BA14CA15DA133C0C7
:1008F0002E8D3F8D48A159A12AA33BA34CA35DA3F4
:100900002AC0CA01B9010E9494039B01AC01623064
:1009100071058105910508F464C08E819F81A885C9
:10092000B985281739074A075B0708F05AC02AA378
:100930003BA34CA35DA38E899F89A88DB98D8A0D99
:100940009B1DAC1DBD1D8E8B9F8BA88FB98F6A1808
:100950007B088C089D08A614B704C804D90488F243
:10096000EE88FF88088D198DE60CF71C081D191DEF
:10097000EE8AFF8A088F198F80905F019090600146
:100980008EEFA82E8FEFB82E8FEFC82E8FEFD82EB8
:10099000A20EB31EC41ED51EF40186819781A085C8
:1009A000B1850297A109B109A816B906CA06DB06E6
:1009B000C0F4228130E040E050E0C601B5010E9461
:1009C000AD0D9B01AC01F40182899389A489B5899D
:1009D000280F391F4A1F5B1F21153105410551059D
:1009E00021F4198221E030E01CC0B9E0169507958A
:1009F000F794E794BA95D1F78A8190E00197AA27F6
:100A000097FDA095BA2FE822F9220A231B232E0D69
:100A10003F1D401F511F2EA33FA348A759A720E009
:100A200030E0C901DF91CF911F910F91FF90EF90BE
:100A3000DF90CF90BF90AF909F908F907F906F90FE
:100A40005F904F903F902F9008956F927F928F927A
:100A50009F92AF92BF92CF92DF92EF92FF920F934D
:100A60001F93CF93DF93FC016B014A01C0915F019B
:100A7000D0916001DA011D921C92209719F425E0B3
:100A800030E0C9C0898180FD03C024E030E0C3C0EC
:100A90002A8D3B8D4C8D5D8D8E899F89A88DB98D5A
:100AA000281B390B4A0B5B0BCB01A0E0B0E02817E9
:100AB00039074A075B0708F469015F01612C72E09E
:100AC000772EA3C02E893F89488D598DDA01C9013F
:100AD0009170A070B0700097A105B10509F05EC0DB
:100AE000DA01C90169E0B695A795979587956A954A
:100AF000D1F7FA80FA94F822D1F421153105410595
:100B0000510529F46E8D7F8D88A199A106C06AA137
:100B10007BA18CA19DA10E94940362307105810587
:100B2000910508F450C06AA37BA38CA39DA30091F8
:100B30005F01109160012AA13BA14CA15DA122504F
:100B4000304040405040F80186819781A085B185B2
:100B50000297A109B109281739074A075B0798F5D9
:100B6000628170E080E090E00E94AD0D9B01AC01DD
:100B7000F80182899389A489B589280F391F4A1FF2
:100B80005B1F2115310541055105E9F02F0D311D80
:100B9000411D511D2EA33FA348A759A72E893F8968
:100BA0003170C301821B930B76018C159D0508F4EF
:100BB0007C014EA15FA168A579A5C50187010E94AE
:100BC000DE01892B21F0198221E030E024C0C70129
:100BD000A0E0B0E02E893F89488D598D280F391F3C
:100BE0004A1F5B1F2E8B3F8B488F598FD4018D91ED
:100BF0009C9111978E0D9F1D8D939C93A114B10410
:100C000011F0AE0CBF1CCE18DF08C114D10409F0DE
:100C100059CF20E030E0C901DF91CF911F910F91B2
:100C2000FF90EF90DF90CF90BF90AF909F908F900C
:100C30007F906F9008952F923F924F925F926F92A4
:100C40007F928F929F92AF92BF92CF92DF92EF925C
:100C5000FF920F931F93DF93CF93CDB7DEB7EF973C
:100C60000FB6F894DEBF0FBECDBF4C0120905F01E0
:100C7000309060012114310419F425E030E089C17D
:100C8000F1011182CE010196988B8F8703C00894E1
:100C9000811C911CF40180818032C9F38F3219F4D8
:100CA0000894811C911C198A1A8A1B8A1C8AF401D7
:100CB0008081803250F4CE010D960E941F039C016A
:100CC0001D8E009709F42FC164C19E01285D3F4F1E
:100CD0003FAF2EAFAF85B889FD01CD010B9602C0A5
:100CE00030E23193E817F907D9F790E028E01DAE1C
:100CF00002C098E02BE0F4018DADE80FF11D80817A
:100D0000EDADEF5FEDAF813288F08F3279F08E324A
:100D100011F0921728F0283049F48E3251F306C0B2
:100D2000FD01E90FF11D80839F5FE5CF1B961C92AB
:100D30001B97813218F4F1E01B96FC93CE010D96BF
:100D40000E941F039C01009709F023C1498D5A8D11
:100D50006B8D7C8D2D853E852F70307015E0220FB8
:100D6000331F1A95E1F7CE014D9600E210E00E9484
:100D7000DE01892B09F02DC18D8D882309F407C16F
:100D800048A543FD12C02F853889FE017D96D90103
:100D90008EAD9FADE817F90709F415C190818C91CC
:100DA000981719F431961196F3CF00915F011091C5
:100DB0006001AD84BE840894A11CB11CA114B104CF
:100DC00009F4E5C0298D3A8D4B8D5C8D21153105D7
:100DD0004105510509F4DBC0C5018F709070892B66
:100DE00009F07DC02F5F3F4F4F4F5F4F298F3A8FE4
:100DF0004B8F5C8F4D895E896F89788D41155105C8
:100E00006105710541F4F80184819581A816B90640
:100E100008F0BDC064C0F801828190E0019795019F
:100E2000B4E036952795BA95E1F782239323892B71
:100E300009F055C0CB01BA010E9494039B01AC019B
:100E4000623071058105910508F4C3C0F8018681FF
:100E50009781A085B185281739074A075B0708F0F5
:100E600096C02D8B3E8B4F8B588FC0905F01D090DA
:100E70006001AEEFEA2EAFEFFA2EAFEF0A2FAFEF21
:100E80001A2FE20EF31E041F151FF60186819781AB
:100E9000A085B1850297A109B109E816F9060A07EC
:100EA0001B0728F020E030E040E050E014C0F601DD
:100EB000228130E040E050E0C801B7010E94AD0D52
:100EC0009B01AC01F60182899389A489B589280F19
:100ED000391F4A1F5B1F298F3A8F4B8F5C8FBE864D
:100EE000AD8634CF44FF53C0FDAD8F0E911C5AA880
:100EF000442429A930E02429352940E050E0A90103
:100F00003327222778AC66248FA990E08629972979
:100F1000A0E0B0E0282B392B4A2B5B2B298B3A8B96
:100F20004B8B5C8BD7CE8D8D882389F188A584FD72
:100F30002EC03AA920E089A990E0282B392B40E067
:100F400050E0A9013327222798AD80E06FA970E017
:100F5000862B972BA0E0B0E0282B392B4A2B5B2B5C
:100F6000F101268F378F40A351A3CE01C9960E946D
:100F7000F302F101628F738F848F958F168A178A1F
:100F8000108E118E81E0818320E030E002C023E0EA
:100F900030E0C901EF960FB6F894DEBF0FBECDBFAB
:100FA000CF91DF911F910F91FF90EF90DF90CF9045
:100FB000BF90AF909F908F907F906F905F904F9079
:100FC0003F902F900895F9018385882309F48ACFF3
:100FD000AACF21E030E0DDCFCF92DF92EF92FF92F7
:100FE0000F931F93CF93DF93EC016A017B012EEFE8
:100FF00031E002E010E00E94DE01892B11F043E0B5
:1010000025C0998180E0288130E0822B932B855583
:101010009A4A11F042E01AC0CE01B701A60122E5BA
:1010200030E002E010E00E94DE01892B11F041E087
:101030000DC0398120E040E0888190E0282B392BD9
:101040002654314409F441E081E04827842FDF91A0
:10105000CF911F910F91FF90EF90DF90CF90089567
:101060004F925F926F927F928F929F92AF92BF92B8
:10107000CF92DF92EF92FF920F931F93CF93DF9364
:10108000FC015B013A01C0915F01D0916001DA017E
:101090001D921C92209719F425E030E0FFC0898151
:1010A00090E080FD03C024E030E0F8C080749070D0
:1010B0006115710589F4892B59F080E090E040E0DA
:1010C00050E060E070E00E945801892B09F0D5C023
:1010D00089818F7B8983E0C0892B51F48E899F8918
:1010E000A88DB98D80709E7F8E8B9F8BA88FB98FB6
:1010F0002A8D3B8D4C8D5D8D8E899F89A88DB98DF4
:10110000281B390B4A0B5B0BC501A0E0B0E0281788
:1011100039074A075B0708F459014F01412C82E067
:10112000582EB6C02E893F89488D598DC9019170BE
:10113000892B09F06BC0DA01C90109E0B695A795C2
:10114000979587950A95D1F7FA80FA94F822D1F409
:10115000211531054105510529F46E8D7F8D88A13A
:1011600099A106C06AA17BA18CA19DA10E949403B4
:10117000623071058105910508F47FC06AA37BA3E5
:101180008CA39DA300915F01109160012AA13BA156
:101190004CA15DA12250304040405040F801868172
:1011A0009781A085B1850297A109B1092817390750
:1011B0004A075B0708F061C0628170E080E090E060
:1011C0000E94AD0D9B01AC01F80182899389A4892D
:1011D000B589280F391F4A1F5B1F211531054105AD
:1011E000510509F44AC0BA01A9014F0D511D611DF5
:1011F000711D4EA35FA368A779A780E090E00E94CD
:101200005801892BD1F58981806489838E899F89D2
:1012100091709201281B390B65012A153B0508F4D2
:101220006901760100E010E0C401B801A7010E9445
:101230005801892B11F58E899F89A88DB98D8E0D46
:101240009F1DA01FB11F9C018E8B9F8BA88FB98FF4
:10125000D3018D919C9111978C0D9D1D8D939C9325
:101260003170232B89F480E090E040E050E060E0B2
:1012700070E00E945801892B21F0198221E030E0B2
:101280000DC089818F7B89838C0C9D1CAC18BD0897
:10129000A114B10409F046CF20E030E0C901DF918C
:1012A000CF911F910F91FF90EF90DF90CF90BF9063
:1012B000AF909F908F907F906F905F904F90089528
:1012C0006F927F928F929F92AF92BF92CF92DF9256
:1012D000EF92FF920F931F93DF93CF93CDB7DEB7BB
:1012E000A4970FB6F894DEBF0FBECDBF5C0110927D
:1012F000600110925F010E94330280FF03C022E070
:1013000030E0C4C04E010894811C911CC40140E02F
:1013100050E060E070E00E94EC07813021F0CC24C6
:10132000DD2476011DC0C40140E050E060E070E0C3
:101330002EEB31E000E110E00E94DE01892B09F084
:10134000A0C08D81882309F49FC0CE0109960E9418
:10135000F3026B017C01C401B701A6010E94EC07F6
:10136000833009F48EC0882309F08EC0CE01019627
:10137000B701A6012DE030E004E210E00E94DE019A
:10138000892B09F07EC09B8580E02A8530E0822B86
:10139000932BBC0180E090E06115710581059105FA
:1013A00021F4CE0148960E94F3022C8130E040E007
:1013B00050E00E94AD0D3B014C019B8180E02A81F1
:1013C00030E0822B932BA0E0B0E08C0D9D1DAE1D74
:1013D000BF1DF50182879387A487B58789818283A2
:1013E0009E8180E02D81C22EDD24C82AD92AD58293
:1013F000C482988580E02F8130E0822B932B7C0182
:1014000000E010E0E114F1040105110531F4CE0112
:1014100044960E94F3027B018C019B8180E02A812B
:1014200030E0822B932BA0E0B0E0E81AF90A0A0B17
:101430001B0BE618F7080809190934E0D694C7947D
:101440003A95E1F7C601A0E0B0E0E81AF90A0A0B04
:101450001B0BF501228130E040E050E0C801B701EC
:101460000E94CC0D2E5F3F4F4F4F5F4FF5012683FB
:10147000378340875187275F3F4F40405040E0F41B
:1014800003C021E030E002C026E030E0C901A496AC
:101490000FB6F894DEBF0FBECDBFCF91DF911F9185
:1014A0000F91FF90EF90DF90CF90BF90AF909F9003
:1014B0008F907F906F90089583E0F5018083CE0137
:1014C00080960E94F302F50166877787808B918B67
:1014D0008481958124E0969587952A95E1F7A0E08F
:1014E000B0E02285338544855585820F931FA41F64
:1014F000B51F860D971DA81DB91D828B938BA48BDC
:10150000B58B1182B0926001A0925F0120E030E0C3
:10151000BDCF1F93CF93DF93EC01162F05C08FEF44
:101520000E94090D899311501123C9F7DF91CF91C2
:101530001F9108951F9310E003C01F5F193029F019
:101540008FEF0E94090D8F3FC1F31F910895CF9334
:10155000DF93EC010E949A0A8883823028F4CE013E
:10156000019664E00E94890ADF91CF910895CF939C
:10157000DF93EC010E949A0A8883823028F4CE011E
:10158000019664E00E94890ADF91CF9108951F932C
:101590008FEF0E94090D5B988FEF0E94090D0E944A
:1015A0009A0A182F8FEF0E94090D5B9A8FEF0E9405
:1015B000090D812F1F9108950F931F938C010E9495
:1015C0009A0AF80180838FEF0E94090DF801818348
:1015D0001F910F910895DF92EF92FF920F931F9347
:1015E0007A018B01D22E80640E94090D812F9927E8
:1015F000AA27BB270E94090DC801AA27BB270E9462
:10160000090DBB27A12F902F8F2D0E94090D8E2D24
:101610000E94090D8D2D81600E94090D1F910F916F
:10162000FF90EF90DF9008951F938FEF0E94090DB8
:101630005B988FEF0E94090D87E740E050E060E083
:1016400070E020E00E94EB0A0E949A0A182F8FEFA8
:101650000E94090D5B9A8FEF0E94090D812F1F9147
:101660000895CF93DF93EC018FEF0E94090D5B98F3
:101670008FEF0E94090D8F3FD9F78AE740E050E0D5
:1016800060E070E020E00E94EB0ACE010E94B70A01
:101690008FEF0E94090D5B9A8FEF0E94090DDF9179
:1016A000CF910895AF92BF92CF92DF92EF92FF92C7
:1016B0000F931F93CF93DF937B018C015A01690134
:1016C0008FEFF90180830E94090D5B988FEF0E94D4
:1016D000090D88E5B801A70120E00E94EB0A0E94ED
:1016E0009A0AE82E8823C9F58EEF0E94090DC0E002
:1016F000D0E0F501EC0FFD1F80810E94090D2196BD
:10170000F2E0C030DF07A9F70AC08FEF0E94090D91
:10171000982F8F3F31F08FEFF601808308C0C0E033
:10172000D0E02196FFE0C334DF0779F79FEF9F7188
:10173000953099F485E0F6018083C0E0D0E008C0E0
:101740002196FFE0C334DF0719F4F601108205C0CB
:101750008FEF0E94090D882399F38FEF0E94090DE6
:101760005B9A8FEF0E94090D8E2DDF91CF911F9113
:101770000F91FF90EF90DF90CF90BF90AF900895C2
:10178000AF92BF92CF92DF92EF92FF920F931F938F
:10179000CF93DF937B018C016A0159018FEFF9012F
:1017A00080830E94090D5B988FEF0E94090D81E5EF
:1017B000B801A70120E00E94EB0A0E949A0A082FB4
:1017C0008F3F51F427C08FEF0E94090D182F8F3FD4
:1017D00029F08E3FE9F409C0C0E0D0E02196F6E0A0
:1017E000CB31DF0781F71FEF13C0C0E0D0E08FEFF0
:1017F0000E94090DF60181936F012196F2E0C0303D
:10180000DF07A9F78FEF0E94090D8FEF0E94090DE6
:10181000F50110838FEF0E94090D5B9A8FEF0E94F4
:10182000090D802FDF91CF911F910F91FF90EF90C5
:10183000DF90CF90BF90AF9008950F931F938C01CE
:101840008FEF0E94090D5B988FEF0E94090D8DE0CC
:1018500040E050E060E070E020E00E94EB0AC80148
:101860000E94DC0A8FEF0E94090D5B9A8FEF0E94A5
:10187000090D1F910F9108950F931F938C018FEF06
:101880000E94090D5B988FEF0E94090D88E44AEAD7
:1018900051E060E070E026E80E94EB0AC8010E9477
:1018A000A70A8FEF0E94090D5B9A8FEF0E94090D26
:1018B0001F910F9108951F938FEF0E94090D5B9860
:1018C0008FEF0E94090D80E440E050E060E070E09E
:1018D00024E90E94EB0A0E949A0A182F8FEF0E94B7
:1018E000090D5B9A8FEF0E94090D812F1F910895BA
:1018F0001F935B9A80E098E40197F1F78FEF0E94C5
:10190000090D5B9A10E08FEF0E94090D1F5F1035E3
:10191000D1F71F910895EF92FF921F93DF93CF931A
:1019200000D000D00F92CDB7DEB70E94780C10E047
:1019300005C01F5F1F3F11F481E039C00E945B0C9E
:1019400089838130B1F783E397E00197F1F7CE0106
:1019500001960E943C0C8981813011F082E027C001
:101960008D818A3A11F083E022C010E033E3E32E48
:1019700037E0F32E05C01F5F1F3F11F484E017C04E
:101980000E94140B8983823018F40E94C70A89834D
:10199000C7010197F1F78981882369F783E397E00D
:1019A0000197F1F7CE0101960E94310B80E00F9074
:1019B0000F900F900F900F90CF91DF911F91FF909C
:1019C000EF900895539A5B9AA4ECB0E011961C92A4
:1019D0001E92549AE2ECF0E08081806480838081E2
:1019E0008068808380818E7F808380818D7F8083EB
:1019F00080818B7F8083E1ECF0E080818860808350
:101A00008081806180838BE190E011969C938E931E
:101A10000895982F8091C00085FFFCCF9093C60059
:101A20008091C00087FFFCCF8091C6000895529A34
:101A30005A9AA4ECB0E011961C921E92549AE2ECD1
:101A4000F0E08081806C80838081836080838081EE
:101A50008B7F8083E1ECF0E080818860808383E38A
:101A600090E011969C938E930895982F8091C000DA
:101A700085FFFCCF9093C6008091C00086FFFCCF0D
:101A80008091C00080648093C00008950F931F93DD
:101A9000182F062F5A988EEF0E94350D85E40E946C
:101AA000350D86E69EE00197F1F7112311F4802FA2
:101AB00010C0113019F4802F805C0BC0123019F463
:101AC000802F8C5E06C0133019F4802F8C5A01C011
:101AD00080E00E94350D5A9A1F910F9108955A98EF
:101AE0008EEF0E94350D81E50E94350D86E69EE061
:101AF0000197F1F75A9A089588EE93E028EB30E0C9
:101B0000F9013197F1F70197D9F70E94170D84EC8D
:101B100099E028EB30E0F9013197F1F70197D9F717
:101B200084EC99E028EB30E0F9013197F1F7019767
:101B3000D9F70E946F0D0895CF93DF93EC0104C095
:101B40005A980E94350D5A9A89918823C9F7DF91D6
:101B5000CF9108950E949C0D0895629FD001739FBC
:101B6000F001829FE00DF11D649FE00DF11D929F39
:101B7000F00D839FF00D749FF00D659FF00D992778
:101B8000729FB00DE11DF91F639FB00DE11DF91F9C
:101B9000BD01CF0111240895A1E21A2EAA1BBB1B7F
:101BA000FD010DC0AA1FBB1FEE1FFF1FA217B30729
:101BB000E407F50720F0A21BB30BE40BF50B661F3F
:101BC000771F881F991F1A9469F760957095809503
:101BD00090959B01AC01BD01CF010895AEE0B0E04E
:101BE000E4EFFDE00C949D100D891E8986E08C8346
:101BF0001A8309838FEF9FE79E838D839E01275E63
:101C00003F4FCE0101966F89788DA9010E94120E77
:101C10002F813885020F131FF80110822E96E4E001
:101C20000C94B910ABE0B0E0E8E1FEE00C948F104A
:101C30003C012B015A01FC0117821682838181FD30
:101C400003C06FEF7FEFC6C19AE0892E1E01089492
:101C5000211C311CF3012381F20123FD859123FF17
:101C600081912F01882309F4B2C1853239F423FD13
:101C7000859123FF81912F01853229F490E0B301F2
:101C80000E940510E7CF982FFF24EE249924FFE14E
:101C9000FF15D0F09B3269F09C3228F4903259F055
:101CA000933291F40EC09D3249F0903369F441E0D3
:101CB00024C052E0F52A84E0F82A28C098E0F92AE6
:101CC00025C0E0E1FE2A22C0F7FC29C0892F8053FD
:101CD0008A3070F4F6FE05C0989C902C1124980E62
:101CE00015C0E89CE02C1124E80EF0E2FF2A0EC09B
:101CF0009E3229F4F6FC6BC140E4F42A07C09C36FE
:101D000019F450E8F52A02C0983649F4F20123FD8F
:101D1000959123FF91912F01992309F0B8CF892F35
:101D20008554833018F08052833038F444E050E01A
:101D3000A40EB51E5FE359830FC0933631F093377D
:101D400079F0933509F056C020C0F5018081898370
:101D500042E050E0A40EB51E610101E010E012C0A7
:101D6000F501C080D180F6FC03C06FEF7FEF02C0A9
:101D7000692D70E042E050E0A40EB51EC6010E943D
:101D8000FA0F8C015FE7F52214C0F501C080D18005
:101D9000F6FC03C06FEF7FEF02C0692D70E042E0F8
:101DA00050E0A40EB51EC6010E94EF0F8C0150E852
:101DB000F52AF3FE07C01AC080E290E0B3010E944A
:101DC0000510EA948E2D90E008171907A8F30EC0AD
:101DD000F601F7FC8591F7FE81916F0190E0B30168
:101DE0000E940510E110EA94015010400115110500
:101DF00079F7EAC0943611F0993669F5F7FE08C014
:101E0000F501208131814281538184E090E00AC054
:101E1000F501808191819C01442737FD4095542F25
:101E200082E090E0A80EB91E9FE6F92257FF09C094
:101E300050954095309521953F4F4F4F5F4FE0E8CB
:101E4000FE2ACA01B901A1012AE030E00E94311046
:101E5000D82ED21840C0953729F41F2D1F7E2AE0B6
:101E600030E01DC01F2D197F9F3661F0903720F4A0
:101E7000983509F0ACC00FC0903739F0983709F0A9
:101E8000A6C004C028E030E00AC0106114FD146050
:101E900020E130E004C014FD166020E132E017FFBD
:101EA00008C0F501608171818281938144E050E036
:101EB00008C0F50180819181BC0180E090E042E0A2
:101EC00050E0A40EB51EA1010E943110D82ED218E8
:101ED0008FE7F82EF122F6FE0BC05EEFF522D91443
:101EE00038F4F4FE07C0F2FC05C08FEEF82202C001
:101EF0001D2D01C0192DF4FE0DC0FE01ED0DF11DCB
:101F00008081803319F499EEF92208C01F5FF2FE38
:101F100005C003C08F2D867809F01F5F0F2DF3FCDD
:101F200014C0F0FE0FC01E1510F09D2C0BC09D2C90
:101F30009E0C911A1E2D06C080E290E0B3010E9413
:101F400005101F5F1E15C0F304C01E1510F4E11A22
:101F500001C0EE2404FF0FC080E390E0B3010E94B3
:101F6000051002FF1DC001FD03C088E790E00EC010
:101F700088E590E00BC0802F867891F001FF02C0C9
:101F80008BE201C080E2F7FC8DE290E0B3010E9499
:101F9000051006C080E390E0B3010E9405109A94FA
:101FA000D914C0F3DA94F101ED0DF11D808190E0B8
:101FB000B3010E940510DD20A9F706C080E290E081
:101FC000B3010E940510EA94EE20C1F743CEF3015D
:101FD00066817781CB012B96E2E10C94AB10FC017A
:101FE0000590615070400110D8F7809590958E0F44
:101FF0009F1F0895FC016150704001900110D8F7B7
:10200000809590958E0F9F1F08950F931F93CF93E8
:10201000DF938C01EB018B8181FF1BC082FF0DC020
:102020002E813F818C819D812817390764F4E881D6
:10203000F9810193F983E88306C0E885F985802F4B
:102040000995892B31F48E819F8101969F838E8320
:1020500002C00FEF1FEFC801DF91CF911F910F91C9
:102060000895FA01AA27283051F1203181F1E8942E
:102070006F936E7F6E5F7F4F8F4F9F4FAF4FB1E07B
:102080003ED0B4E03CD0670F781F891F9A1FA11D76
:10209000680F791F8A1F911DA11D6A0F711D811D77
:1020A000911DA11D20D009F468943F912AE0269F3C
:1020B00011243019305D3193DEF6CF010895462F9B
:1020C0004770405D4193B3E00FD0C9F7F6CF462F7C
:1020D0004F70405D4A3318F0495D31FD40524193E5
:1020E00002D0A9F7EACFB4E0A695979587957795A2
:1020F0006795BA95C9F700976105710508959B0129
:10210000AC010A2E06945795479537952795BA95B1
:10211000C9F7620F731F841F951FA01D08952F928A
:102120003F924F925F926F927F928F929F92AF9267
:10213000BF92CF92DF92EF92FF920F931F93CF93B4
:10214000DF93CDB7DEB7CA1BDB0B0FB6F894DEBF4B
:102150000FBECDBF09942A88398848885F846E8471
:102160007D848C849B84AA84B984C884DF80EE80BB
:10217000FD800C811B81AA81B981CE0FD11D0FB6C4
:10218000F894DEBF0FBECDBFED010895F894FFCFE8
:102190006D6F756E7420636F6465203D202564004B
:1021A000544553542E545854005046206F70656E59
:1021B000203D202564004572726F72207769746833
:1021C00020504620777269746500444F4E452121A6
:1021D000210054657374205465737420746573749E
:0C21E00020492068617465205344000011
:00000001FF
