:100000000C9434000C9451000C9451000C94510049
:100010000C9451000C9451000C9451000C9451001C
:100020000C9451000C9451000C9451000C9451000C
:100030000C9451000C9451000C9451000C945100FC
:100040000C9451000C9451000C9451000C945100EC
:100050000C9451000C9451000C9451000C945100DC
:100060000C9451000C94510011241FBECFEFD8E026
:10007000DEBFCDBF11E0A0E0B1E0ECE1F4E102C0F1
:1000800005900D92A831B107D9F711E0A8E1B1E0D0
:1000900001C01D92AA31B107E1F70E9453000C94F0
:1000A0000C0A0C940000DF93CF93CDB7DEB7EB972B
:1000B0000FB6F894DEBF0FBECDBFCE0142960E94B0
:1000C000150680E091E00E940004DE011396E9E04D
:1000D000F1E08FE001900D928150E1F7CE0103969F
:1000E00068E870E0AE014F5F5F4F0E94DA01FFCF1A
:1000F000DF93CF930F92CDB7DEB79C01009719F431
:1001000020E030E00AC0CB01BA01A9019E012F5FB7
:100110003F4F0E940F08282F30E0C9010F90CF9168
:10012000DF910895AF92BF92CF92DF92EF92FF924C
:100130000F931F93DF93CF93CDB7DEB7C150D2405B
:100140000FB6F894DEBF0FBECDBF5C016901780128
:10015000CB01BA01AE014E5F5F4F8E010F5F1F4FA3
:1001600098010E947D08282F90E00BC0F501EA0F4E
:10017000FB1FA00FB11FAC0DBD1D11968C9180838C
:100180009F5FA92FB0E0AE15BF0580F3822F90E0EE
:10019000CF5FDD4F0FB6F894DEBF0FBECDBFCF915E
:1001A000DF911F910F91FF90EF90DF90CF90BF9064
:1001B000AF9008950E9448090895FC01238130E022
:1001C00040E050E0542F432F322F2227828190E0CD
:1001D000A0E0B0E0282B392B4A2B5B2B542F432F68
:1001E000322F2227818190E0A0E0B0E0282B392B2C
:1001F0004A2B5B2B542F432F322F2227808190E0F4
:10020000A0E0B0E0282B392B4A2B5B2BB901CA01A7
:100210000895CF92DF92EF92FF920F931F93CF93A7
:10022000DF936C01C0911801D0911901FC0111827A
:100230001082248135814681578121303105410565
:10024000510509F44FC08E819F81A885B985281773
:1002500039074A075B0708F045C0211531054105FC
:10026000510521F42E853F8548895989F60120875B
:100270003187428753877EEFE72E7FEFF72E7FEFA0
:10028000072F7FEF172FE20EF31E041F151F8E811D
:100290009F81A885B9850297A109B109E816F906D9
:1002A0000A071B0728F020E030E040E050E012C0D1
:1002B0002A8130E040E050E0C801B7010E94CB093C
:1002C0009B01AC018A899B89AC89BD89280F391FA4
:1002D0004A1F5B1FF601248735874687578720E032
:1002E00030E002C021E030E0C901DF91CF911F91E1
:1002F0000F91FF90EF90DF90CF900895EF92FF92D3
:100300000F931F93DF93CF9300D000D0CDB7DEB70C
:100310008B019C01E0911801F09119016230710587
:1003200081059105B0F186819781A085B185081777
:1003300019072A073B0768F58081833051F5B90119
:10034000A801A7E07695679557954795AA95D1F7A7
:1003500082859385A485B585480F591F6A1F7B1F29
:1003600098012F773070220F331F220F331F7E0129
:100370000894E11CF11CC70104E010E00E94920007
:10038000892B39F4C7010E94DD009B01AC015F702D
:1003900004C021E030E040E050E0B901CA010F9014
:1003A0000F900F900F90CF91DF911F910F91FF90C1
:1003B000EF9008954F925F926F927F928F929F92EB
:1003C000AF92BF92CF92DF92EF92FF920F931F9363
:1003D000CF93DF93FC015B013A01C0911801D091EA
:1003E0001901DA011D921C92209719F425E030E0E2
:1003F000FFC0898190E080FD03C024E030E0F8C0B8
:10040000807490706115710589F4892B59F080E032
:1004100090E040E050E060E070E00E947800892BBE
:1004200009F0D5C089818F7B8983E0C0892B51F485
:100430008E899F89A88DB98D80709E7F8E8B9F8BB2
:10044000A88FB98F2A8D3B8D4C8D5D8D8E899F89AC
:10045000A88DB98D281B390B4A0B5B0BC501A0E099
:10046000B0E0281739074A075B0708F459014F0124
:10047000412C02E0502EB6C02E893F89488D598DFF
:10048000C9019170892B09F06BC0DA01C90119E02B
:10049000B695A795979587951A95D1F7FA80FA940E
:1004A000F822D1F4211531054105510529F46E8D4D
:1004B0007F8D88A199A106C06AA17BA18CA19DA175
:1004C0000E947E01623071058105910508F47FC0AC
:1004D0006AA37BA38CA39DA300911801109119011D
:1004E0002AA13BA14CA15DA1225030404040504088
:1004F000F80186819781A085B1850297A109B1098C
:10050000281739074A075B0708F061C0628170E06D
:1005100080E090E00E94CB099B01AC01F801828948
:100520009389A489B589280F391F4A1F5B1F21159C
:1005300031054105510509F44AC0BA01A9014F0D21
:10054000511D611D711D4EA35FA368A779A780E0AF
:1005500090E00E947800892BD1F58981806489839D
:100560008E899F8991709201281B390B65012A158C
:100570003B0508F46901760100E010E0C401B80110
:10058000A7010E947800892B11F58E899F89A88D7B
:10059000B98D8E0D9F1DA01FB11F9C018E8B9F8B4F
:1005A000A88FB98FD3018D919C9111978C0D9D1DB2
:1005B0008D939C933170232B89F480E090E040E090
:1005C00050E060E070E00E947800892B21F01982F1
:1005D00021E030E00DC089818F7B89838C0C9D1CCC
:1005E000AC18BD08A114B10409F046CF20E030E0FA
:1005F000C901DF91CF911F910F91FF90EF90DF9094
:10060000CF90BF90AF909F908F907F906F905F90B2
:100610004F9008956F927F928F929F92AF92BF9268
:10062000CF92DF92EF92FF920F931F93CF93DF93BE
:10063000FC016B014A01C0911801D0911901DA0146
:100640001D921C92209719F425E030E0C9C08981E1
:1006500080FD03C024E030E0C3C02A8D3B8D4C8D6B
:100660005D8D8E899F89A88DB98D281B390B4A0B0A
:100670005B0BCB01A0E0B0E0281739074A075B0706
:1006800008F469015F01612C72E0772EA3C02E8906
:100690003F89488D598DDA01C9019170A070B07001
:1006A0000097A105B10509F05EC0DA01C90169E052
:1006B000B695A795979587956A95D1F7FA80FA949C
:1006C000F822D1F4211531054105510529F46E8D2B
:1006D0007F8D88A199A106C06AA17BA18CA19DA153
:1006E0000E947E01623071058105910508F450C0B9
:1006F0006AA37BA38CA39DA30091180110911901FB
:100700002AA13BA14CA15DA1225030404040504065
:10071000F80186819781A085B1850297A109B10969
:10072000281739074A075B0798F5628170E080E077
:1007300090E00E94CB099B01AC01F801828993896A
:10074000A489B589280F391F4A1F5B1F2115310560
:1007500041055105E9F02F0D311D411D511D2EA3FD
:100760003FA348A759A72E893F893170C301821B37
:10077000930B76018C159D0508F47C014EA15FA1B9
:1007800068A579A5C50187010E949200892B21F0F7
:10079000198221E030E024C0C701A0E0B0E02E893A
:1007A0003F89488D598D280F391F4A1F5B1F2E8B9B
:1007B0003F8B488F598FD4018D919C9111978E0D4D
:1007C0009F1D8D939C93A114B10411F0AE0CBF1C1E
:1007D000CE18DF08C114D10409F059CF20E030E071
:1007E000C901DF91CF911F910F91FF90EF90DF90A2
:1007F000CF90BF90AF909F908F907F906F90089513
:100800002F923F924F925F926F927F928F929F9220
:10081000AF92BF92CF92DF92EF92FF920F931F930E
:10082000DF93CF93CDB7DEB7EF970FB6F894DEBF67
:100830000FBECDBF4C01209018013090190121143A
:10084000310419F425E030E089C1F1011182CE01B3
:100850000196988B8F8703C00894811C911CF4012A
:1008600080818032C9F38F3219F40894811C911C65
:10087000198A1A8A1B8A1C8AF4018081803250F4FA
:10088000CE010D960E9409019C011D8E009709F46E
:100890002FC164C19E01285D3F4F3FAF2EAFAF8592
:1008A000B889FD01CD010B9602C030E23193E81703
:1008B000F907D9F728E01DAE90E002C02BE098E0E0
:1008C000F4018DADE80FF11D8081EDADEF5FEDAF6F
:1008D000813288F08F3279F08E3211F0921728F041
:1008E000283049F48E3251F306C0FD01E90FF11DA5
:1008F00080839F5FE5CF1B961C921B97813218F473
:10090000F1E01B96FC93CE010D960E9409019C011B
:10091000009709F023C1498D5A8D6B8D7C8D2D85F3
:100920003E852F70307015E0220F331F1A95E1F7C6
:10093000CE014D9600E210E00E949200892B09F052
:100940002DC18D8D882309F407C148A543FD12C030
:100950002F853889FE017D96D9018EAD9FADE817B0
:10096000F90709F415C190818C91981719F4319603
:100970001196F3CF0091180110911901AD84BE8436
:100980000894A11CB11CA114B10409F4E5C0298D7F
:100990003A8D4B8D5C8D211531054105510509F4CA
:1009A000DBC0C5018F709070892B09F07DC02F5F6F
:1009B0003F4F4F4F5F4F298F3A8F4B8F5C8F4D8941
:1009C0005E896F89788D411551056105710541F486
:1009D000F80184819581A816B90608F0BDC064C0ED
:1009E000F801828190E001979501B4E03695279552
:1009F000BA95E1F782239323892B09F055C0CB01E7
:100A0000BA010E947E019B01AC0162307105810533
:100A1000910508F4C3C0F80186819781A085B1854E
:100A2000281739074A075B0708F096C02D8B3E8BC5
:100A30004F8B588FC0901801D0901901AEEFEA2E5D
:100A4000AFEFFA2EAFEF0A2FAFEF1A2FE20EF31E21
:100A5000041F151FF60186819781A085B185029735
:100A6000A109B109E816F9060A071B0728F020E0DA
:100A700030E040E050E014C0F601228130E040E078
:100A800050E0C801B7010E94CB099B01AC01F601FF
:100A900082899389A489B589280F391F4A1F5B1F52
:100AA000298F3A8F4B8F5C8FBE86AD8634CF44FF43
:100AB00053C0FDAD8F0E911C5AA8442429A930E0E3
:100AC0002429352940E050E0A9013327222778ACBA
:100AD00066248FA990E086299729A0E0B0E0282B12
:100AE000392B4A2B5B2B298B3A8B4B8B5C8BD7CECC
:100AF0008D8D882389F188A584FD2EC03AA920E038
:100B000089A990E0282B392B40E050E0A901332738
:100B1000222798AD80E06FA970E0862B972BA0E08C
:100B2000B0E0282B392B4A2B5B2BF101268F378F16
:100B300040A351A3CE01C9960E94DD00F101628F4E
:100B4000738F848F958F168A178A108E118E81E08D
:100B5000818320E030E002C023E030E0C901EF965D
:100B60000FB6F894DEBF0FBECDBFCF91DF911F91BE
:100B70000F91FF90EF90DF90CF90BF90AF909F903C
:100B80008F907F906F905F904F903F902F9008953F
:100B9000F9018385882309F48ACFAACF21E030E0C8
:100BA000DDCFCF92DF92EF92FF920F931F93CF93FF
:100BB000DF93EC016A017B012EEF31E002E010E0EF
:100BC0000E949200892B11F043E025C0998180E0BA
:100BD000288130E0822B932B85559A4A11F042E010
:100BE0001AC0CE01B701A60122E530E002E010E014
:100BF0000E949200892B11F041E00DC0398120E064
:100C000040E0888190E0282B392B2654314409F4A8
:100C100041E081E04827842FDF91CF911F910F9110
:100C2000FF90EF90DF90CF9008956F927F928F9218
:100C30009F92AF92BF92CF92DF92EF92FF920F936B
:100C40001F93DF93CF93CDB7DEB7A4970FB6F89479
:100C5000DEBF0FBECDBF5C011092190110921801CA
:100C60000E94DA0080FF03C022E030E0C4C04E01E1
:100C70000894811C911CC40140E050E060E070E0E9
:100C80000E94D105813021F0CC24DD2476011DC0E5
:100C9000C40140E050E060E070E02EEB31E000E1A4
:100CA00010E00E949200892B09F0A0C08D8188235A
:100CB00009F49FC0CE0109960E94DD006B017C0102
:100CC000C401B701A6010E94D105833009F48EC08A
:100CD000882309F08EC0CE010196B701A6012DE050
:100CE00030E004E210E00E949200892B09F07EC0FF
:100CF0009B8580E02A8530E0822B932BBC0180E02D
:100D000090E0611571058105910521F4CE014896A9
:100D10000E94DD002C8130E040E050E00E94CB09D1
:100D20003B014C019B8180E02A8130E0822B932B98
:100D3000A0E0B0E08C0D9D1DAE1DBF1DF5018287AA
:100D40009387A487B587898182839E8180E02D81E6
:100D5000C22EDD24C82AD92AD582C482988580E093
:100D60002F8130E0822B932B7C0100E010E0E11416
:100D7000F1040105110531F4CE0144960E94DD0015
:100D80007B018C019B8180E02A8130E0822B932BB8
:100D9000A0E0B0E0E81AF90A0A0B1B0BE618F70806
:100DA0000809190984E0D694C7948A95E1F7C60129
:100DB000A0E0B0E0E81AF90A0A0B1B0BF50122814A
:100DC00030E040E050E0C801B7010E94EA092E5F20
:100DD0003F4F4F4F5F4FF501268337834087518741
:100DE000275F3F4F40405040E0F403C021E030E037
:100DF00002C026E030E0C901A4960FB6F894DEBF29
:100E00000FBECDBFCF91DF911F910F91FF90EF905B
:100E1000DF90CF90BF90AF909F908F907F906F901A
:100E2000089583E0F5018083CE0180960E94DD0065
:100E3000F50166877787808B918B8481958104E0AB
:100E4000969587950A95E1F7A0E0B0E02285338575
:100E500044855585820F931FA41FB51F860D971DCE
:100E6000A81DB91D828B938BA48BB58B1182B09278
:100E70001901A092180120E030E0BDCF1F93CF935D
:100E8000DF93EC01162F05C08FEF0E94BD098993F7
:100E900011501123C9F7DF91CF911F9108951F932E
:100EA00010E003C01F5F193029F08FEF0E94BD09C9
:100EB0008F3FC1F31F910895CF93DF93EC010E9400
:100EC0004F078883823028F4CE01019664E00E94A7
:100ED0003E07DF91CF910895CF93DF93EC010E94FD
:100EE0004F078883823028F4CE01019664E00E9487
:100EF0003E07DF91CF9108950F931F938C010E94BD
:100F00004F07F80180838FEF0E94BD09F8018183AC
:100F10001F910F910895DF92EF92FF920F931F930D
:100F20007A018B01D22E80640E94BD09812F9927FE
:100F3000AA27BB270E94BD09C801AA27BB270E9478
:100F4000BD09BB27A12F902F8F2D0E94BD098E2D8B
:100F50000E94BD098D2D81600E94BD091F910F91D6
:100F6000FF90EF90DF9008951F938FEF0E94BD09CF
:100F70005B988FEF0E94BD0989E240E050E060E09D
:100F800070E420E00E948B070E944F07182F8FEF1C
:100F90000E94BD095B9A8FEF0E94BD09812F1F91AE
:100FA00008951F938FEF0E94BD095B988FEF0E94F9
:100FB000BD0987E340E050E060E070E020E00E947F
:100FC0008B070E944F07182F8FEF0E94BD095B9A75
:100FD0008FEF0E94BD09812F1F910895CF93DF935A
:100FE000EC018FEF0E94BD095B988FEF0E94BD0955
:100FF0008F3FD9F78AE340E050E060E070E020E006
:101000000E948B07CE010E946C078FEF0E94BD09E2
:101010005B9A8FEF0E94BD09DF91CF910895AF9247
:10102000BF92CF92DF92EF92FF920F931F93CF93D5
:10103000DF937B018C015A0169018FEFF9018083F5
:101040000E94BD095B988FEF0E94BD0988E1B8013D
:10105000A70120E00E948B070E944F07E82E8823FB
:10106000C9F58EEF0E94BD09C0E0D0E0F501EC0F9C
:10107000FD1F80810E94BD092196F2E0C030DF078C
:10108000A9F70AC08FEF0E94BD09982F8F3F31F05A
:101090008FEFF601808308C0C0E0D0E02196FFE02A
:1010A000C334DF0779F79FEF9F71953099F485E09E
:1010B000F6018083C0E0D0E008C02196FFE0C33491
:1010C000DF0719F4F601108205C08FEF0E94BD09F9
:1010D000882399F38FEF0E94BD095B9A8FEF0E94DE
:1010E000BD098E2DDF91CF911F910F91FF90EF9051
:1010F000DF90CF90BF90AF900895AF92BF92CF9204
:10110000DF92EF92FF920F931F93CF93DF937B01B8
:101110008C016A0159018FEFF90180830E94BD099A
:101120005B988FEF0E94BD0981E1B801A70120E023
:101130000E948B070E944F07082F8F3F51F427C052
:101140008FEF0E94BD09182F8F3F29F08E3FE9F4E1
:1011500009C0C0E0D0E02196F6E0CB31DF0781F78F
:101160001FEF13C0C0E0D0E08FEF0E94BD09F60171
:1011700081936F012196F2E0C030DF07A9F78FEF6E
:101180000E94BD098FEF0E94BD09F50110838FEF0A
:101190000E94BD095B9A8FEF0E94BD09802FDF91ED
:1011A000CF911F910F91FF90EF90DF90CF90BF9064
:1011B000AF9008950F931F938C018FEF0E94BD098C
:1011C0005B988FEF0E94BD098DE040E050E060E049
:1011D00070E020E00E948B07C8010E947C078FEF1F
:1011E0000E94BD095B9A8FEF0E94BD091F910F916C
:1011F00008950F931F938C018FEF0E94BD095B9898
:101200008FEF0E94BD0988E04AEA51E060E070E09B
:1012100026E80E948B07C8010E945C078FEF0E949E
:10122000BD095B9A8FEF0E94BD091F910F91089530
:101230001F938FEF0E94BD095B988FEF0E94BD093D
:1012400080E040E050E060E070E024E90E948B071D
:101250000E944F07182F8FEF0E94BD095B9A8FEFF6
:101260000E94BD09812F1F9108951F935B9A80E012
:1012700098E40197F1F78FEF0E94BD095B9A10E0A7
:101280008FEF0E94BD091F5F1035D1F71F910895A0
:10129000EF92FF921F93DF93CF9300D000D00F9275
:1012A000CDB7DEB70E94350910E003C01F5F1F3FB6
:1012B000A1F10E94180989838130C1F783E397E087
:1012C0000197F1F7CE0101960E94F90889818130DA
:1012D00021F58D818A3A09F510E033E3E32E37E0FA
:1012E000F32E03C01F5F1F3FC1F00E94D107898307
:1012F000823018F40E94B4078983C7010197F1F77F
:101300008981882379F783E397E00197F1F7CE018C
:1013100001960E94EE0780E001C081E00F900F90DF
:101320000F900F900F90CF91DF911F91FF90EF9052
:101330000895539A5B9AA4ECB0E011961C921E9209
:10134000549AE2ECF0E08081806480838081806840
:1013500080838081816080838081826080838081BE
:101360008B7F8083E1ECF0E08081886080838FE276
:1013700090E011969C938E930895982F8091C000D1
:1013800085FFFCCF9093C6008091C00087FFFCCF03
:101390008091C6000895629FD001739FF001829FE3
:1013A000E00DF11D649FE00DF11D929FF00D839FF4
:1013B000F00D749FF00D659FF00D9927729FB00D91
:1013C000E11DF91F639FB00DE11DF91FBD01CF01A4
:1013D00011240895A1E21A2EAA1BBB1BFD010DC00A
:1013E000AA1FBB1FEE1FFF1FA217B307E407F507D5
:1013F00020F0A21BB30BE40BF50B661F771F881FB1
:10140000991F1A9469F760957095809590959B0146
:0C141000AC01BD01CF010895F894FFCF9E
:10141C00546573742E747874005465737420546519
:08142C007374207465737400F1
:00000001FF
